{
    "data": {
        "bytecode": {
            "linkReferences": {},
            "object": "60a06040819052600060808190526200001b916009916200020c565b5060408051808201909152600580825264173539b7b760d91b60209092019182526200004a91600a916200020c565b5066d529ae9e860000600c55668e1bc9bf040000600d55666a94d74f430000600e55611e14600f5560056010819055601155600360125560786013556014805462ffffff191662010001179055348015620000a457600080fd5b506040805180820182526008815267436170796261726160c01b60208083019182528351808501909452600384526243434360e81b908401528151919291620000f0916002916200020c565b508051620001069060039060208401906200020c565b50506000805550620001183362000142565b6200013c60405180608001604052806041815260200162002b986041913962000194565b620002ef565b600880546001600160a01b038381166001600160a01b0319831681179093556040519116919082907f8be0079c531659141344cd1fd0a4f28419497f9722a3daafe3b4186f6b6457e090600090a35050565b6008546001600160a01b03163314620001f35760405162461bcd60e51b815260206004820181905260248201527f4f776e61626c653a2063616c6c6572206973206e6f7420746865206f776e6572604482015260640160405180910390fd5b80516200020890600b9060208401906200020c565b5050565b8280546200021a90620002b2565b90600052602060002090601f0160209004810192826200023e576000855562000289565b82601f106200025957805160ff191683800117855562000289565b8280016001018555821562000289579182015b82811115620002895782518255916020019190600101906200026c565b50620002979291506200029b565b5090565b5b808211156200029757600081556001016200029c565b600181811c90821680620002c757607f821691505b60208210811415620002e957634e487b7160e01b600052602260045260246000fd5b50919050565b61289980620002ff6000396000f3fe6080604052600436106102ae5760003560e01c80636a37a20f11610175578063bd2f92a1116100dc578063dfa434b211610095578063efb8a8931161006f578063efb8a893146107ff578063efbd73f41461081f578063f2fde38b1461083f578063fdea8e0b1461085f57600080fd5b8063dfa434b214610776578063e0a8085314610796578063e985e9c5146107b657600080fd5b8063bd2f92a1146106da578063c54e73e3146106ed578063c87b56dd1461070d578063ced2053b1461072d578063d0bfb8101461074d578063d5abeb011461076057600080fd5b806395d89b411161012e57806395d89b411461063a578063a22cb4651461064f578063a45ba8e71461066f578063b071401b14610684578063b88d4fde146106a4578063ba7d2c76146106c457600080fd5b80636a37a20f1461059b57806370a08231146105b1578063715018a6146105d15780637ec4a659146105e65780638da5cb5b1461060657806394354fd01461062457600080fd5b80633ccfd60b116102195780635503a0e8116101d25780635503a0e81461050e5780635a5e5d58146105235780635c975abb1461053657806362b99ad4146105505780636352211e1461056557806363cc11131461058557600080fd5b80633ccfd60b1461046457806342842e0e1461047957806343a552221461049957806345eefa37146104af5780634fdd43cb146104cf57806351830227146104ef57600080fd5b806316ba10e01161026b57806316ba10e01461039e57806316c38b3c146103be57806318160ddd146103de57806318cae269146103f757806323b872dd146104245780632f9a7c581461044457600080fd5b806301ffc9a7146102b357806306afd592146102e857806306fdde031461030c578063081812fc1461032e578063085ebf7714610366578063095ea7b31461037c575b600080fd5b3480156102bf57600080fd5b506102d36102ce36600461232e565b61087f565b60405190151581526020015b60405180910390f35b3480156102f457600080fd5b506102fe600d5481565b6040519081526020016102df565b34801561031857600080fd5b506103216108d1565b6040516102df91906125ba565b34801561033a57600080fd5b5061034e610349366004612315565b610963565b6040516001600160a01b0390911681526020016102df565b34801561037257600080fd5b506102fe600e5481565b34801561038857600080fd5b5061039c6103973660046122d0565b6109a7565b005b3480156103aa57600080fd5b5061039c6103b9366004612368565b610a35565b3480156103ca57600080fd5b5061039c6103d93660046122fa565b610a7f565b3480156103ea57600080fd5b50600154600054036102fe565b34801561040357600080fd5b506102fe6104123660046121a0565b60156020526000908152604090205481565b34801561043057600080fd5b5061039c61043f3660046121ee565b610abc565b34801561045057600080fd5b5061039c61045f366004612315565b610ac7565b34801561047057600080fd5b5061039c610af6565b34801561048557600080fd5b5061039c6104943660046121ee565b610b94565b3480156104a557600080fd5b506102fe60135481565b3480156104bb57600080fd5b5061039c6104ca366004612315565b610baf565b3480156104db57600080fd5b5061039c6104ea366004612368565b610bde565b3480156104fb57600080fd5b506014546102d390610100900460ff1681565b34801561051a57600080fd5b50610321610c1b565b61039c610531366004612315565b610ca9565b34801561054257600080fd5b506014546102d39060ff1681565b34801561055c57600080fd5b50610321610e9a565b34801561057157600080fd5b5061034e610580366004612315565b610ea7565b34801561059157600080fd5b506102fe600c5481565b3480156105a757600080fd5b506102fe60125481565b3480156105bd57600080fd5b506102fe6105cc3660046121a0565b610eb9565b3480156105dd57600080fd5b5061039c610f08565b3480156105f257600080fd5b5061039c610601366004612368565b610f3e565b34801561061257600080fd5b506008546001600160a01b031661034e565b34801561063057600080fd5b506102fe60105481565b34801561064657600080fd5b50610321610f7b565b34801561065b57600080fd5b5061039c61066a3660046122a6565b610f8a565b34801561067b57600080fd5b50610321611020565b34801561069057600080fd5b5061039c61069f366004612315565b61102d565b3480156106b057600080fd5b5061039c6106bf36600461222a565b61105c565b3480156106d057600080fd5b506102fe60115481565b61039c6106e83660046123d4565b6110ad565b3480156106f957600080fd5b5061039c6107083660046122fa565b611311565b34801561071957600080fd5b50610321610728366004612315565b611357565b34801561073957600080fd5b5061039c610748366004612315565b6114c6565b61039c61075b3660046123d4565b6114f5565b34801561076c57600080fd5b506102fe600f5481565b34801561078257600080fd5b5061039c610791366004612315565b61166f565b3480156107a257600080fd5b5061039c6107b13660046122fa565b61169e565b3480156107c257600080fd5b506102d36107d13660046121bb565b6001600160a01b03918216600090815260076020908152604080832093909416825291909152205460ff1690565b34801561080b57600080fd5b5061039c61081a366004612315565b6116e2565b34801561082b57600080fd5b5061039c61083a3660046123b1565b611711565b34801561084b57600080fd5b5061039c61085a3660046121a0565b61177f565b34801561086b57600080fd5b506014546102d39062010000900460ff1681565b60006001600160e01b031982166380ac58cd60e01b14806108b057506001600160e01b03198216635b5e139f60e01b145b806108cb57506301ffc9a760e01b6001600160e01b03198316145b92915050565b6060600280546108e09061278b565b80601f016020809104026020016040519081016040528092919081815260200182805461090c9061278b565b80156109595780601f1061092e57610100808354040283529160200191610959565b820191906000526020600020905b81548152906001019060200180831161093c57829003601f168201915b5050505050905090565b600061096e82611817565b61098b576040516333d1c03960e21b815260040160405180910390fd5b506000908152600660205260409020546001600160a01b031690565b60006109b282610ea7565b9050806001600160a01b0316836001600160a01b031614156109e75760405163250fdee360e21b815260040160405180910390fd5b336001600160a01b03821614801590610a075750610a0581336107d1565b155b15610a25576040516367d9dca160e11b815260040160405180910390fd5b610a30838383611842565b505050565b6008546001600160a01b03163314610a685760405162461bcd60e51b8152600401610a5f90612632565b60405180910390fd5b8051610a7b90600a906020840190612083565b5050565b6008546001600160a01b03163314610aa95760405162461bcd60e51b8152600401610a5f90612632565b6014805460ff1916911515919091179055565b610a3083838361189e565b6008546001600160a01b03163314610af15760405162461bcd60e51b8152600401610a5f90612632565b600c55565b6008546001600160a01b03163314610b205760405162461bcd60e51b8152600401610a5f90612632565b6000610b346008546001600160a01b031690565b6001600160a01b03164760405160006040518083038185875af1925050503d8060008114610b7e576040519150601f19603f3d011682016040523d82523d6000602084013e610b83565b606091505b5050905080610b9157600080fd5b50565b610a308383836040518060200160405280600081525061105c565b6008546001600160a01b03163314610bd95760405162461bcd60e51b8152600401610a5f90612632565b601655565b6008546001600160a01b03163314610c085760405162461bcd60e51b8152600401610a5f90612632565b8051610a7b90600b906020840190612083565b600a8054610c289061278b565b80601f0160208091040260200160405190810160405280929190818152602001828054610c549061278b565b8015610ca15780601f10610c7657610100808354040283529160200191610ca1565b820191906000526020600020905b815481529060010190602001808311610c8457829003601f168201915b505050505081565b80323314610cc95760405162461bcd60e51b8152600401610a5f906125fb565b600081118015610cdb57506010548111155b610cf75760405162461bcd60e51b8152600401610a5f906125cd565b600f5481610d086001546000540390565b610d1291906126fd565b1115610d305760405162461bcd60e51b8152600401610a5f9061269e565b60145460ff1615610d535760405162461bcd60e51b8152600401610a5f90612667565b60145462010000900460ff1615610dac5760405162461bcd60e51b815260206004820152601b60248201527f4e6f742076616c6964207573657220666f72207072652073616c6500000000006044820152606401610a5f565b81600c54610dba9190612729565b341015610dff5760405162461bcd60e51b8152602060048201526013602482015272496e73756666696369656e742066756e64732160681b6044820152606401610a5f565b60115433600090815260156020526040902054610e1d9084906126fd565b1115610e6b5760405162461bcd60e51b815260206004820152601c60248201527f6d6178204e4654207065722061646472657373206578636565646564000000006044820152606401610a5f565b3360009081526015602052604081208054849290610e8a9084906126fd565b90915550610a7b90503383611a8e565b60098054610c289061278b565b6000610eb282611aa8565b5192915050565b60006001600160a01b038216610ee2576040516323d3ad8160e21b815260040160405180910390fd5b506001600160a01b031660009081526005602052604090205467ffffffffffffffff1690565b6008546001600160a01b03163314610f325760405162461bcd60e51b8152600401610a5f90612632565b610f3c6000611bc4565b565b6008546001600160a01b03163314610f685760405162461bcd60e51b8152600401610a5f90612632565b8051610a7b906009906020840190612083565b6060600380546108e09061278b565b6001600160a01b038216331415610fb45760405163b06307db60e01b815260040160405180910390fd5b3360008181526007602090815260408083206001600160a01b03871680855290835292819020805460ff191686151590811790915590519081529192917f17307eab39ab6107e8899845ad3d59bd9653f200f220920489ca2b5937696c31910160405180910390a35050565b600b8054610c289061278b565b6008546001600160a01b031633146110575760405162461bcd60e51b8152600401610a5f90612632565b601055565b61106784848461189e565b6001600160a01b0383163b15158015611089575061108784848484611c16565b155b156110a7576040516368d2bf6b60e11b815260040160405180910390fd5b50505050565b813233146110cd5760405162461bcd60e51b8152600401610a5f906125fb565b6000811180156110df57506010548111155b6110fb5760405162461bcd60e51b8152600401610a5f906125cd565b600f548161110c6001546000540390565b61111691906126fd565b11156111345760405162461bcd60e51b8152600401610a5f9061269e565b60145460ff16156111575760405162461bcd60e51b8152600401610a5f90612667565b60145462010000900460ff166111a15760405162461bcd60e51b815260206004820152600f60248201526e4e6f7420696e207072652073616c6560881b6044820152606401610a5f565b6017546040516bffffffffffffffffffffffff193360601b1660208201526111e49184916034015b60405160208183030381529060405280519060200120611d0e565b6112245760405162461bcd60e51b815260206004820152601160248201527041646472657373206973206e6f74206f6760781b6044820152606401610a5f565b82600e546112329190612729565b3410156112765760405162461bcd60e51b8152602060048201526012602482015271696e73756666696369656e742066756e647360701b6044820152606401610a5f565b601254336000908152601560205260409020546112949085906126fd565b11156112e25760405162461bcd60e51b815260206004820152601c60248201527f6d6178204e4654207065722061646472657373206578636565646564000000006044820152606401610a5f565b33600090815260156020526040812080548592906113019084906126fd565b90915550610a3090503384611a8e565b6008546001600160a01b0316331461133b5760405162461bcd60e51b8152600401610a5f90612632565b60148054911515620100000262ff000019909216919091179055565b606061136282611817565b6113c65760405162461bcd60e51b815260206004820152602f60248201527f4552433732314d657461646174613a2055524920717565727920666f72206e6f60448201526e3732bc34b9ba32b73a103a37b5b2b760891b6064820152608401610a5f565b601454610100900460ff1661146757600b80546113e29061278b565b80601f016020809104026020016040519081016040528092919081815260200182805461140e9061278b565b801561145b5780601f106114305761010080835404028352916020019161145b565b820191906000526020600020905b81548152906001019060200180831161143e57829003601f168201915b50505050509050919050565b6000611471611d24565b9050600081511161149157604051806020016040528060008152506114bf565b8061149b84611d33565b600a6040516020016114af939291906124b9565b6040516020818303038152906040525b9392505050565b6008546001600160a01b031633146114f05760405162461bcd60e51b8152600401610a5f90612632565b600d55565b813233146115155760405162461bcd60e51b8152600401610a5f906125fb565b60008111801561152757506010548111155b6115435760405162461bcd60e51b8152600401610a5f906125cd565b600f54816115546001546000540390565b61155e91906126fd565b111561157c5760405162461bcd60e51b8152600401610a5f9061269e565b60145460ff161561159f5760405162461bcd60e51b8152600401610a5f90612667565b60145462010000900460ff166115e95760405162461bcd60e51b815260206004820152600f60248201526e4e6f7420696e207072652073616c6560881b6044820152606401610a5f565b6016546040516bffffffffffffffffffffffff193360601b1660208201526116159184916034016111c9565b6116615760405162461bcd60e51b815260206004820152601a60248201527f41646472657373206973206e6f742077686974656c69737465640000000000006044820152606401610a5f565b82600d546112329190612729565b6008546001600160a01b031633146116995760405162461bcd60e51b8152600401610a5f90612632565b601755565b6008546001600160a01b031633146116c85760405162461bcd60e51b8152600401610a5f90612632565b601480549115156101000261ff0019909216919091179055565b6008546001600160a01b0316331461170c5760405162461bcd60e51b8152600401610a5f90612632565b600e55565b81601354816117236001546000540390565b61172d91906126fd565b111561174b5760405162461bcd60e51b8152600401610a5f9061269e565b6008546001600160a01b031633146117755760405162461bcd60e51b8152600401610a5f90612632565b610a308284611a8e565b6008546001600160a01b031633146117a95760405162461bcd60e51b8152600401610a5f90612632565b6001600160a01b03811661180e5760405162461bcd60e51b815260206004820152602660248201527f4f776e61626c653a206e6577206f776e657220697320746865207a65726f206160448201526564647265737360d01b6064820152608401610a5f565b610b9181611bc4565b60008054821080156108cb575050600090815260046020526040902054600160e01b900460ff161590565b60008281526006602052604080822080546001600160a01b0319166001600160a01b0387811691821790925591518593918516917f8c5be1e5ebec7d5bd14f71427d1e84f3dd0314c0f7b2291e5b200ac8c7c3b92591a4505050565b60006118a982611aa8565b9050836001600160a01b031681600001516001600160a01b0316146118e05760405162a1148160e81b815260040160405180910390fd5b6000336001600160a01b03861614806118fe57506118fe85336107d1565b8061191957503361190e84610963565b6001600160a01b0316145b90508061193957604051632ce44b5f60e11b815260040160405180910390fd5b6001600160a01b03841661196057604051633a954ecd60e21b815260040160405180910390fd5b61196c60008487611842565b6001600160a01b038581166000908152600560209081526040808320805467ffffffffffffffff1980821667ffffffffffffffff92831660001901831617909255898616808652838620805493841693831660019081018416949094179055898652600490945282852080546001600160e01b031916909417600160a01b42909216919091021783558701808452922080549193909116611a42576000548214611a42578054602086015167ffffffffffffffff16600160a01b026001600160e01b03199091166001600160a01b038a16171781555b50505082846001600160a01b0316866001600160a01b03167fddf252ad1be2c89b69c2b068fc378daa952ba7f163c4a11628f55a4df523b3ef60405160405180910390a45b5050505050565b610a7b828260405180602001604052806000815250611e31565b604080516060810182526000808252602082018190529181019190915281600054811015611bab57600081815260046020908152604091829020825160608101845290546001600160a01b0381168252600160a01b810467ffffffffffffffff1692820192909252600160e01b90910460ff16151591810182905290611ba95780516001600160a01b031615611b3f579392505050565b5060001901600081815260046020908152604091829020825160608101845290546001600160a01b038116808352600160a01b820467ffffffffffffffff1693830193909352600160e01b900460ff1615159281019290925215611ba4579392505050565b611b3f565b505b604051636f96cda160e11b815260040160405180910390fd5b600880546001600160a01b038381166001600160a01b0319831681179093556040519116919082907f8be0079c531659141344cd1fd0a4f28419497f9722a3daafe3b4186f6b6457e090600090a35050565b604051630a85bd0160e11b81526000906001600160a01b0385169063150b7a0290611c4b90339089908890889060040161257d565b602060405180830381600087803b158015611c6557600080fd5b505af1925050508015611c95575060408051601f3d908101601f19168201909252611c929181019061234b565b60015b611cf0573d808015611cc3576040519150601f19603f3d011682016040523d82523d6000602084013e611cc8565b606091505b508051611ce8576040516368d2bf6b60e11b815260040160405180910390fd5b805181602001fd5b6001600160e01b031916630a85bd0160e11b1490505b949350505050565b600082611d1b8584611e3e565b14949350505050565b6060600980546108e09061278b565b606081611d575750506040805180820190915260018152600360fc1b602082015290565b8160005b8115611d815780611d6b816127c6565b9150611d7a9050600a83612715565b9150611d5b565b60008167ffffffffffffffff811115611d9c57611d9c612837565b6040519080825280601f01601f191660200182016040528015611dc6576020820181803683370190505b5090505b8415611d0657611ddb600183612748565b9150611de8600a866127e1565b611df39060306126fd565b60f81b818381518110611e0857611e08612821565b60200101906001600160f81b031916908160001a905350611e2a600a86612715565b9450611dca565b610a308383836001611eb2565b600081815b8451811015611eaa576000858281518110611e6057611e60612821565b60200260200101519050808311611e865760008381526020829052604090209250611e97565b600081815260208490526040902092505b5080611ea2816127c6565b915050611e43565b509392505050565b6000546001600160a01b038516611edb57604051622e076360e81b815260040160405180910390fd5b83611ef95760405163b562e8dd60e01b815260040160405180910390fd5b6001600160a01b038516600081815260056020908152604080832080546fffffffffffffffffffffffffffffffff19811667ffffffffffffffff8083168c0181169182176801000000000000000067ffffffffffffffff1990941690921783900481168c01811690920217909155858452600490925290912080546001600160e01b031916909217600160a01b429092169190910217905580808501838015611fab57506001600160a01b0387163b15155b15612034575b60405182906001600160a01b038916906000907fddf252ad1be2c89b69c2b068fc378daa952ba7f163c4a11628f55a4df523b3ef908290a4611ffc6000888480600101955088611c16565b612019576040516368d2bf6b60e11b815260040160405180910390fd5b80821415611fb157826000541461202f57600080fd5b61207a565b5b6040516001830192906001600160a01b038916906000907fddf252ad1be2c89b69c2b068fc378daa952ba7f163c4a11628f55a4df523b3ef908290a480821415612035575b50600055611a87565b82805461208f9061278b565b90600052602060002090601f0160209004810192826120b157600085556120f7565b82601f106120ca57805160ff19168380011785556120f7565b828001600101855582156120f7579182015b828111156120f75782518255916020019190600101906120dc565b50612103929150612107565b5090565b5b808211156121035760008155600101612108565b600067ffffffffffffffff83111561213657612136612837565b612149601f8401601f19166020016126cc565b905082815283838301111561215d57600080fd5b828260208301376000602084830101529392505050565b80356001600160a01b038116811461218b57600080fd5b919050565b8035801515811461218b57600080fd5b6000602082840312156121b257600080fd5b6114bf82612174565b600080604083850312156121ce57600080fd5b6121d783612174565b91506121e560208401612174565b90509250929050565b60008060006060848603121561220357600080fd5b61220c84612174565b925061221a60208501612174565b9150604084013590509250925092565b6000806000806080858703121561224057600080fd5b61224985612174565b935061225760208601612174565b925060408501359150606085013567ffffffffffffffff81111561227a57600080fd5b8501601f8101871361228b57600080fd5b61229a8782356020840161211c565b91505092959194509250565b600080604083850312156122b957600080fd5b6122c283612174565b91506121e560208401612190565b600080604083850312156122e357600080fd5b6122ec83612174565b946020939093013593505050565b60006020828403121561230c57600080fd5b6114bf82612190565b60006020828403121561232757600080fd5b5035919050565b60006020828403121561234057600080fd5b81356114bf8161284d565b60006020828403121561235d57600080fd5b81516114bf8161284d565b60006020828403121561237a57600080fd5b813567ffffffffffffffff81111561239157600080fd5b8201601f810184136123a257600080fd5b611d068482356020840161211c565b600080604083850312156123c457600080fd5b823591506121e560208401612174565b600080604083850312156123e757600080fd5b8235915060208084013567ffffffffffffffff8082111561240757600080fd5b818601915086601f83011261241b57600080fd5b81358181111561242d5761242d612837565b8060051b915061243e8483016126cc565b8181528481019084860184860187018b101561245957600080fd5b600095505b8386101561247c57803583526001959095019491860191860161245e565b508096505050505050509250929050565b600081518084526124a581602086016020860161275f565b601f01601f19169290920160200192915050565b6000845160206124cc8285838a0161275f565b8551918401916124df8184848a0161275f565b8554920191600090600181811c90808316806124fc57607f831692505b85831081141561251a57634e487b7160e01b85526022600452602485fd5b80801561252e576001811461253f5761256c565b60ff1985168852838801955061256c565b60008b81526020902060005b858110156125645781548a82015290840190880161254b565b505083880195505b50939b9a5050505050505050505050565b6001600160a01b03858116825284166020820152604081018390526080606082018190526000906125b09083018461248d565b9695505050505050565b6020815260006114bf602083018461248d565b602080825260149082015273496e76616c6964206d696e7420616d6f756e742160601b604082015260600190565b6020808252601e908201527f5468652063616c6c657220697320616e6f7468657220636f6e74726163740000604082015260600190565b6020808252818101527f4f776e61626c653a2063616c6c6572206973206e6f7420746865206f776e6572604082015260600190565b60208082526017908201527f54686520636f6e74726163742069732070617573656421000000000000000000604082015260600190565b6020808252601490820152734d617820737570706c792065786365656465642160601b604082015260600190565b604051601f8201601f1916810167ffffffffffffffff811182821017156126f5576126f5612837565b604052919050565b60008219821115612710576127106127f5565b500190565b6000826127245761272461280b565b500490565b6000816000190483118215151615612743576127436127f5565b500290565b60008282101561275a5761275a6127f5565b500390565b60005b8381101561277a578181015183820152602001612762565b838111156110a75750506000910152565b600181811c9082168061279f57607f821691505b602082108114156127c057634e487b7160e01b600052602260045260246000fd5b50919050565b60006000198214156127da576127da6127f5565b5060010190565b6000826127f0576127f061280b565b500690565b634e487b7160e01b600052601160045260246000fd5b634e487b7160e01b600052601260045260246000fd5b634e487b7160e01b600052603260045260246000fd5b634e487b7160e01b600052604160045260246000fd5b6001600160e01b031981168114610b9157600080fdfea2646970667358221220565cba4da1a5d5c9fdd60b4900f428271d51adfc7e113551524a44d9627fe44a64736f6c63430008070033697066733a2f2f516d634e714b6d4e6a7935776f33744352543361707937427a456f315379477357727535356675445a50636b64362f68696464656e2e6a736f6e",
            "opcodes": "PUSH1 0xA0 PUSH1 0x40 DUP2 SWAP1 MSTORE PUSH1 0x0 PUSH1 0x80 DUP2 SWAP1 MSTORE PUSH3 0x1B SWAP2 PUSH1 0x9 SWAP2 PUSH3 0x20C JUMP JUMPDEST POP PUSH1 0x40 DUP1 MLOAD DUP1 DUP3 ADD SWAP1 SWAP2 MSTORE PUSH1 0x5 DUP1 DUP3 MSTORE PUSH5 0x173539B7B7 PUSH1 0xD9 SHL PUSH1 0x20 SWAP1 SWAP3 ADD SWAP2 DUP3 MSTORE PUSH3 0x4A SWAP2 PUSH1 0xA SWAP2 PUSH3 0x20C JUMP JUMPDEST POP PUSH7 0xD529AE9E860000 PUSH1 0xC SSTORE PUSH7 0x8E1BC9BF040000 PUSH1 0xD SSTORE PUSH7 0x6A94D74F430000 PUSH1 0xE SSTORE PUSH2 0x1E14 PUSH1 0xF SSTORE PUSH1 0x5 PUSH1 0x10 DUP2 SWAP1 SSTORE PUSH1 0x11 SSTORE PUSH1 0x3 PUSH1 0x12 SSTORE PUSH1 0x78 PUSH1 0x13 SSTORE PUSH1 0x14 DUP1 SLOAD PUSH3 0xFFFFFF NOT AND PUSH3 0x10001 OR SWAP1 SSTORE CALLVALUE DUP1 ISZERO PUSH3 0xA4 JUMPI PUSH1 0x0 DUP1 REVERT JUMPDEST POP PUSH1 0x40 DUP1 MLOAD DUP1 DUP3 ADD DUP3 MSTORE PUSH1 0x8 DUP2 MSTORE PUSH8 0x4361707962617261 PUSH1 0xC0 SHL PUSH1 0x20 DUP1 DUP4 ADD SWAP2 DUP3 MSTORE DUP4 MLOAD DUP1 DUP6 ADD SWAP1 SWAP5 MSTORE PUSH1 0x3 DUP5 MSTORE PUSH3 0x434343 PUSH1 0xE8 SHL SWAP1 DUP5 ADD MSTORE DUP2 MLOAD SWAP2 SWAP3 SWAP2 PUSH3 0xF0 SWAP2 PUSH1 0x2 SWAP2 PUSH3 0x20C JUMP JUMPDEST POP DUP1 MLOAD PUSH3 0x106 SWAP1 PUSH1 0x3 SWAP1 PUSH1 0x20 DUP5 ADD SWAP1 PUSH3 0x20C JUMP JUMPDEST POP POP PUSH1 0x0 DUP1 SSTORE POP PUSH3 0x118 CALLER PUSH3 0x142 JUMP JUMPDEST PUSH3 0x13C PUSH1 0x40 MLOAD DUP1 PUSH1 0x80 ADD PUSH1 0x40 MSTORE DUP1 PUSH1 0x41 DUP2 MSTORE PUSH1 0x20 ADD PUSH3 0x2B98 PUSH1 0x41 SWAP2 CODECOPY PUSH3 0x194 JUMP JUMPDEST PUSH3 0x2EF JUMP JUMPDEST PUSH1 0x8 DUP1 SLOAD PUSH1 0x1 PUSH1 0x1 PUSH1 0xA0 SHL SUB DUP4 DUP2 AND PUSH1 0x1 PUSH1 0x1 PUSH1 0xA0 SHL SUB NOT DUP4 AND DUP2 OR SWAP1 SWAP4 SSTORE PUSH1 0x40 MLOAD SWAP2 AND SWAP2 SWAP1 DUP3 SWAP1 PUSH32 0x8BE0079C531659141344CD1FD0A4F28419497F9722A3DAAFE3B4186F6B6457E0 SWAP1 PUSH1 0x0 SWAP1 LOG3 POP POP JUMP JUMPDEST PUSH1 0x8 SLOAD PUSH1 0x1 PUSH1 0x1 PUSH1 0xA0 SHL SUB AND CALLER EQ PUSH3 0x1F3 JUMPI PUSH1 0x40 MLOAD PUSH3 0x461BCD PUSH1 0xE5 SHL DUP2 MSTORE PUSH1 0x20 PUSH1 0x4 DUP3 ADD DUP2 SWAP1 MSTORE PUSH1 0x24 DUP3 ADD MSTORE PUSH32 0x4F776E61626C653A2063616C6C6572206973206E6F7420746865206F776E6572 PUSH1 0x44 DUP3 ADD MSTORE PUSH1 0x64 ADD PUSH1 0x40 MLOAD DUP1 SWAP2 SUB SWAP1 REVERT JUMPDEST DUP1 MLOAD PUSH3 0x208 SWAP1 PUSH1 0xB SWAP1 PUSH1 0x20 DUP5 ADD SWAP1 PUSH3 0x20C JUMP JUMPDEST POP POP JUMP JUMPDEST DUP3 DUP1 SLOAD PUSH3 0x21A SWAP1 PUSH3 0x2B2 JUMP JUMPDEST SWAP1 PUSH1 0x0 MSTORE PUSH1 0x20 PUSH1 0x0 KECCAK256 SWAP1 PUSH1 0x1F ADD PUSH1 0x20 SWAP1 DIV DUP2 ADD SWAP3 DUP3 PUSH3 0x23E JUMPI PUSH1 0x0 DUP6 SSTORE PUSH3 0x289 JUMP JUMPDEST DUP3 PUSH1 0x1F LT PUSH3 0x259 JUMPI DUP1 MLOAD PUSH1 0xFF NOT AND DUP4 DUP1 ADD OR DUP6 SSTORE PUSH3 0x289 JUMP JUMPDEST DUP3 DUP1 ADD PUSH1 0x1 ADD DUP6 SSTORE DUP3 ISZERO PUSH3 0x289 JUMPI SWAP2 DUP3 ADD JUMPDEST DUP3 DUP2 GT ISZERO PUSH3 0x289 JUMPI DUP3 MLOAD DUP3 SSTORE SWAP2 PUSH1 0x20 ADD SWAP2 SWAP1 PUSH1 0x1 ADD SWAP1 PUSH3 0x26C JUMP JUMPDEST POP PUSH3 0x297 SWAP3 SWAP2 POP PUSH3 0x29B JUMP JUMPDEST POP SWAP1 JUMP JUMPDEST JUMPDEST DUP1 DUP3 GT ISZERO PUSH3 0x297 JUMPI PUSH1 0x0 DUP2 SSTORE PUSH1 0x1 ADD PUSH3 0x29C JUMP JUMPDEST PUSH1 0x1 DUP2 DUP2 SHR SWAP1 DUP3 AND DUP1 PUSH3 0x2C7 JUMPI PUSH1 0x7F DUP3 AND SWAP2 POP JUMPDEST PUSH1 0x20 DUP3 LT DUP2 EQ ISZERO PUSH3 0x2E9 JUMPI PUSH4 0x4E487B71 PUSH1 0xE0 SHL PUSH1 0x0 MSTORE PUSH1 0x22 PUSH1 0x4 MSTORE PUSH1 0x24 PUSH1 0x0 REVERT JUMPDEST POP SWAP2 SWAP1 POP JUMP JUMPDEST PUSH2 0x2899 DUP1 PUSH3 0x2FF PUSH1 0x0 CODECOPY PUSH1 0x0 RETURN INVALID PUSH1 0x80 PUSH1 0x40 MSTORE PUSH1 0x4 CALLDATASIZE LT PUSH2 0x2AE JUMPI PUSH1 0x0 CALLDATALOAD PUSH1 0xE0 SHR DUP1 PUSH4 0x6A37A20F GT PUSH2 0x175 JUMPI DUP1 PUSH4 0xBD2F92A1 GT PUSH2 0xDC JUMPI DUP1 PUSH4 0xDFA434B2 GT PUSH2 0x95 JUMPI DUP1 PUSH4 0xEFB8A893 GT PUSH2 0x6F JUMPI DUP1 PUSH4 0xEFB8A893 EQ PUSH2 0x7FF JUMPI DUP1 PUSH4 0xEFBD73F4 EQ PUSH2 0x81F JUMPI DUP1 PUSH4 0xF2FDE38B EQ PUSH2 0x83F JUMPI DUP1 PUSH4 0xFDEA8E0B EQ PUSH2 0x85F JUMPI PUSH1 0x0 DUP1 REVERT JUMPDEST DUP1 PUSH4 0xDFA434B2 EQ PUSH2 0x776 JUMPI DUP1 PUSH4 0xE0A80853 EQ PUSH2 0x796 JUMPI DUP1 PUSH4 0xE985E9C5 EQ PUSH2 0x7B6 JUMPI PUSH1 0x0 DUP1 REVERT JUMPDEST DUP1 PUSH4 0xBD2F92A1 EQ PUSH2 0x6DA JUMPI DUP1 PUSH4 0xC54E73E3 EQ PUSH2 0x6ED JUMPI DUP1 PUSH4 0xC87B56DD EQ PUSH2 0x70D JUMPI DUP1 PUSH4 0xCED2053B EQ PUSH2 0x72D JUMPI DUP1 PUSH4 0xD0BFB810 EQ PUSH2 0x74D JUMPI DUP1 PUSH4 0xD5ABEB01 EQ PUSH2 0x760 JUMPI PUSH1 0x0 DUP1 REVERT JUMPDEST DUP1 PUSH4 0x95D89B41 GT PUSH2 0x12E JUMPI DUP1 PUSH4 0x95D89B41 EQ PUSH2 0x63A JUMPI DUP1 PUSH4 0xA22CB465 EQ PUSH2 0x64F JUMPI DUP1 PUSH4 0xA45BA8E7 EQ PUSH2 0x66F JUMPI DUP1 PUSH4 0xB071401B EQ PUSH2 0x684 JUMPI DUP1 PUSH4 0xB88D4FDE EQ PUSH2 0x6A4 JUMPI DUP1 PUSH4 0xBA7D2C76 EQ PUSH2 0x6C4 JUMPI PUSH1 0x0 DUP1 REVERT JUMPDEST DUP1 PUSH4 0x6A37A20F EQ PUSH2 0x59B JUMPI DUP1 PUSH4 0x70A08231 EQ PUSH2 0x5B1 JUMPI DUP1 PUSH4 0x715018A6 EQ PUSH2 0x5D1 JUMPI DUP1 PUSH4 0x7EC4A659 EQ PUSH2 0x5E6 JUMPI DUP1 PUSH4 0x8DA5CB5B EQ PUSH2 0x606 JUMPI DUP1 PUSH4 0x94354FD0 EQ PUSH2 0x624 JUMPI PUSH1 0x0 DUP1 REVERT JUMPDEST DUP1 PUSH4 0x3CCFD60B GT PUSH2 0x219 JUMPI DUP1 PUSH4 0x5503A0E8 GT PUSH2 0x1D2 JUMPI DUP1 PUSH4 0x5503A0E8 EQ PUSH2 0x50E JUMPI DUP1 PUSH4 0x5A5E5D58 EQ PUSH2 0x523 JUMPI DUP1 PUSH4 0x5C975ABB EQ PUSH2 0x536 JUMPI DUP1 PUSH4 0x62B99AD4 EQ PUSH2 0x550 JUMPI DUP1 PUSH4 0x6352211E EQ PUSH2 0x565 JUMPI DUP1 PUSH4 0x63CC1113 EQ PUSH2 0x585 JUMPI PUSH1 0x0 DUP1 REVERT JUMPDEST DUP1 PUSH4 0x3CCFD60B EQ PUSH2 0x464 JUMPI DUP1 PUSH4 0x42842E0E EQ PUSH2 0x479 JUMPI DUP1 PUSH4 0x43A55222 EQ PUSH2 0x499 JUMPI DUP1 PUSH4 0x45EEFA37 EQ PUSH2 0x4AF JUMPI DUP1 PUSH4 0x4FDD43CB EQ PUSH2 0x4CF JUMPI DUP1 PUSH4 0x51830227 EQ PUSH2 0x4EF JUMPI PUSH1 0x0 DUP1 REVERT JUMPDEST DUP1 PUSH4 0x16BA10E0 GT PUSH2 0x26B JUMPI DUP1 PUSH4 0x16BA10E0 EQ PUSH2 0x39E JUMPI DUP1 PUSH4 0x16C38B3C EQ PUSH2 0x3BE JUMPI DUP1 PUSH4 0x18160DDD EQ PUSH2 0x3DE JUMPI DUP1 PUSH4 0x18CAE269 EQ PUSH2 0x3F7 JUMPI DUP1 PUSH4 0x23B872DD EQ PUSH2 0x424 JUMPI DUP1 PUSH4 0x2F9A7C58 EQ PUSH2 0x444 JUMPI PUSH1 0x0 DUP1 REVERT JUMPDEST DUP1 PUSH4 0x1FFC9A7 EQ PUSH2 0x2B3 JUMPI DUP1 PUSH4 0x6AFD592 EQ PUSH2 0x2E8 JUMPI DUP1 PUSH4 0x6FDDE03 EQ PUSH2 0x30C JUMPI DUP1 PUSH4 0x81812FC EQ PUSH2 0x32E JUMPI DUP1 PUSH4 0x85EBF77 EQ PUSH2 0x366 JUMPI DUP1 PUSH4 0x95EA7B3 EQ PUSH2 0x37C JUMPI JUMPDEST PUSH1 0x0 DUP1 REVERT JUMPDEST CALLVALUE DUP1 ISZERO PUSH2 0x2BF JUMPI PUSH1 0x0 DUP1 REVERT JUMPDEST POP PUSH2 0x2D3 PUSH2 0x2CE CALLDATASIZE PUSH1 0x4 PUSH2 0x232E JUMP JUMPDEST PUSH2 0x87F JUMP JUMPDEST PUSH1 0x40 MLOAD SWAP1 ISZERO ISZERO DUP2 MSTORE PUSH1 0x20 ADD JUMPDEST PUSH1 0x40 MLOAD DUP1 SWAP2 SUB SWAP1 RETURN JUMPDEST CALLVALUE DUP1 ISZERO PUSH2 0x2F4 JUMPI PUSH1 0x0 DUP1 REVERT JUMPDEST POP PUSH2 0x2FE PUSH1 0xD SLOAD DUP2 JUMP JUMPDEST PUSH1 0x40 MLOAD SWAP1 DUP2 MSTORE PUSH1 0x20 ADD PUSH2 0x2DF JUMP JUMPDEST CALLVALUE DUP1 ISZERO PUSH2 0x318 JUMPI PUSH1 0x0 DUP1 REVERT JUMPDEST POP PUSH2 0x321 PUSH2 0x8D1 JUMP JUMPDEST PUSH1 0x40 MLOAD PUSH2 0x2DF SWAP2 SWAP1 PUSH2 0x25BA JUMP JUMPDEST CALLVALUE DUP1 ISZERO PUSH2 0x33A JUMPI PUSH1 0x0 DUP1 REVERT JUMPDEST POP PUSH2 0x34E PUSH2 0x349 CALLDATASIZE PUSH1 0x4 PUSH2 0x2315 JUMP JUMPDEST PUSH2 0x963 JUMP JUMPDEST PUSH1 0x40 MLOAD PUSH1 0x1 PUSH1 0x1 PUSH1 0xA0 SHL SUB SWAP1 SWAP2 AND DUP2 MSTORE PUSH1 0x20 ADD PUSH2 0x2DF JUMP JUMPDEST CALLVALUE DUP1 ISZERO PUSH2 0x372 JUMPI PUSH1 0x0 DUP1 REVERT JUMPDEST POP PUSH2 0x2FE PUSH1 0xE SLOAD DUP2 JUMP JUMPDEST CALLVALUE DUP1 ISZERO PUSH2 0x388 JUMPI PUSH1 0x0 DUP1 REVERT JUMPDEST POP PUSH2 0x39C PUSH2 0x397 CALLDATASIZE PUSH1 0x4 PUSH2 0x22D0 JUMP JUMPDEST PUSH2 0x9A7 JUMP JUMPDEST STOP JUMPDEST CALLVALUE DUP1 ISZERO PUSH2 0x3AA JUMPI PUSH1 0x0 DUP1 REVERT JUMPDEST POP PUSH2 0x39C PUSH2 0x3B9 CALLDATASIZE PUSH1 0x4 PUSH2 0x2368 JUMP JUMPDEST PUSH2 0xA35 JUMP JUMPDEST CALLVALUE DUP1 ISZERO PUSH2 0x3CA JUMPI PUSH1 0x0 DUP1 REVERT JUMPDEST POP PUSH2 0x39C PUSH2 0x3D9 CALLDATASIZE PUSH1 0x4 PUSH2 0x22FA JUMP JUMPDEST PUSH2 0xA7F JUMP JUMPDEST CALLVALUE DUP1 ISZERO PUSH2 0x3EA JUMPI PUSH1 0x0 DUP1 REVERT JUMPDEST POP PUSH1 0x1 SLOAD PUSH1 0x0 SLOAD SUB PUSH2 0x2FE JUMP JUMPDEST CALLVALUE DUP1 ISZERO PUSH2 0x403 JUMPI PUSH1 0x0 DUP1 REVERT JUMPDEST POP PUSH2 0x2FE PUSH2 0x412 CALLDATASIZE PUSH1 0x4 PUSH2 0x21A0 JUMP JUMPDEST PUSH1 0x15 PUSH1 0x20 MSTORE PUSH1 0x0 SWAP1 DUP2 MSTORE PUSH1 0x40 SWAP1 KECCAK256 SLOAD DUP2 JUMP JUMPDEST CALLVALUE DUP1 ISZERO PUSH2 0x430 JUMPI PUSH1 0x0 DUP1 REVERT JUMPDEST POP PUSH2 0x39C PUSH2 0x43F CALLDATASIZE PUSH1 0x4 PUSH2 0x21EE JUMP JUMPDEST PUSH2 0xABC JUMP JUMPDEST CALLVALUE DUP1 ISZERO PUSH2 0x450 JUMPI PUSH1 0x0 DUP1 REVERT JUMPDEST POP PUSH2 0x39C PUSH2 0x45F CALLDATASIZE PUSH1 0x4 PUSH2 0x2315 JUMP JUMPDEST PUSH2 0xAC7 JUMP JUMPDEST CALLVALUE DUP1 ISZERO PUSH2 0x470 JUMPI PUSH1 0x0 DUP1 REVERT JUMPDEST POP PUSH2 0x39C PUSH2 0xAF6 JUMP JUMPDEST CALLVALUE DUP1 ISZERO PUSH2 0x485 JUMPI PUSH1 0x0 DUP1 REVERT JUMPDEST POP PUSH2 0x39C PUSH2 0x494 CALLDATASIZE PUSH1 0x4 PUSH2 0x21EE JUMP JUMPDEST PUSH2 0xB94 JUMP JUMPDEST CALLVALUE DUP1 ISZERO PUSH2 0x4A5 JUMPI PUSH1 0x0 DUP1 REVERT JUMPDEST POP PUSH2 0x2FE PUSH1 0x13 SLOAD DUP2 JUMP JUMPDEST CALLVALUE DUP1 ISZERO PUSH2 0x4BB JUMPI PUSH1 0x0 DUP1 REVERT JUMPDEST POP PUSH2 0x39C PUSH2 0x4CA CALLDATASIZE PUSH1 0x4 PUSH2 0x2315 JUMP JUMPDEST PUSH2 0xBAF JUMP JUMPDEST CALLVALUE DUP1 ISZERO PUSH2 0x4DB JUMPI PUSH1 0x0 DUP1 REVERT JUMPDEST POP PUSH2 0x39C PUSH2 0x4EA CALLDATASIZE PUSH1 0x4 PUSH2 0x2368 JUMP JUMPDEST PUSH2 0xBDE JUMP JUMPDEST CALLVALUE DUP1 ISZERO PUSH2 0x4FB JUMPI PUSH1 0x0 DUP1 REVERT JUMPDEST POP PUSH1 0x14 SLOAD PUSH2 0x2D3 SWAP1 PUSH2 0x100 SWAP1 DIV PUSH1 0xFF AND DUP2 JUMP JUMPDEST CALLVALUE DUP1 ISZERO PUSH2 0x51A JUMPI PUSH1 0x0 DUP1 REVERT JUMPDEST POP PUSH2 0x321 PUSH2 0xC1B JUMP JUMPDEST PUSH2 0x39C PUSH2 0x531 CALLDATASIZE PUSH1 0x4 PUSH2 0x2315 JUMP JUMPDEST PUSH2 0xCA9 JUMP JUMPDEST CALLVALUE DUP1 ISZERO PUSH2 0x542 JUMPI PUSH1 0x0 DUP1 REVERT JUMPDEST POP PUSH1 0x14 SLOAD PUSH2 0x2D3 SWAP1 PUSH1 0xFF AND DUP2 JUMP JUMPDEST CALLVALUE DUP1 ISZERO PUSH2 0x55C JUMPI PUSH1 0x0 DUP1 REVERT JUMPDEST POP PUSH2 0x321 PUSH2 0xE9A JUMP JUMPDEST CALLVALUE DUP1 ISZERO PUSH2 0x571 JUMPI PUSH1 0x0 DUP1 REVERT JUMPDEST POP PUSH2 0x34E PUSH2 0x580 CALLDATASIZE PUSH1 0x4 PUSH2 0x2315 JUMP JUMPDEST PUSH2 0xEA7 JUMP JUMPDEST CALLVALUE DUP1 ISZERO PUSH2 0x591 JUMPI PUSH1 0x0 DUP1 REVERT JUMPDEST POP PUSH2 0x2FE PUSH1 0xC SLOAD DUP2 JUMP JUMPDEST CALLVALUE DUP1 ISZERO PUSH2 0x5A7 JUMPI PUSH1 0x0 DUP1 REVERT JUMPDEST POP PUSH2 0x2FE PUSH1 0x12 SLOAD DUP2 JUMP JUMPDEST CALLVALUE DUP1 ISZERO PUSH2 0x5BD JUMPI PUSH1 0x0 DUP1 REVERT JUMPDEST POP PUSH2 0x2FE PUSH2 0x5CC CALLDATASIZE PUSH1 0x4 PUSH2 0x21A0 JUMP JUMPDEST PUSH2 0xEB9 JUMP JUMPDEST CALLVALUE DUP1 ISZERO PUSH2 0x5DD JUMPI PUSH1 0x0 DUP1 REVERT JUMPDEST POP PUSH2 0x39C PUSH2 0xF08 JUMP JUMPDEST CALLVALUE DUP1 ISZERO PUSH2 0x5F2 JUMPI PUSH1 0x0 DUP1 REVERT JUMPDEST POP PUSH2 0x39C PUSH2 0x601 CALLDATASIZE PUSH1 0x4 PUSH2 0x2368 JUMP JUMPDEST PUSH2 0xF3E JUMP JUMPDEST CALLVALUE DUP1 ISZERO PUSH2 0x612 JUMPI PUSH1 0x0 DUP1 REVERT JUMPDEST POP PUSH1 0x8 SLOAD PUSH1 0x1 PUSH1 0x1 PUSH1 0xA0 SHL SUB AND PUSH2 0x34E JUMP JUMPDEST CALLVALUE DUP1 ISZERO PUSH2 0x630 JUMPI PUSH1 0x0 DUP1 REVERT JUMPDEST POP PUSH2 0x2FE PUSH1 0x10 SLOAD DUP2 JUMP JUMPDEST CALLVALUE DUP1 ISZERO PUSH2 0x646 JUMPI PUSH1 0x0 DUP1 REVERT JUMPDEST POP PUSH2 0x321 PUSH2 0xF7B JUMP JUMPDEST CALLVALUE DUP1 ISZERO PUSH2 0x65B JUMPI PUSH1 0x0 DUP1 REVERT JUMPDEST POP PUSH2 0x39C PUSH2 0x66A CALLDATASIZE PUSH1 0x4 PUSH2 0x22A6 JUMP JUMPDEST PUSH2 0xF8A JUMP JUMPDEST CALLVALUE DUP1 ISZERO PUSH2 0x67B JUMPI PUSH1 0x0 DUP1 REVERT JUMPDEST POP PUSH2 0x321 PUSH2 0x1020 JUMP JUMPDEST CALLVALUE DUP1 ISZERO PUSH2 0x690 JUMPI PUSH1 0x0 DUP1 REVERT JUMPDEST POP PUSH2 0x39C PUSH2 0x69F CALLDATASIZE PUSH1 0x4 PUSH2 0x2315 JUMP JUMPDEST PUSH2 0x102D JUMP JUMPDEST CALLVALUE DUP1 ISZERO PUSH2 0x6B0 JUMPI PUSH1 0x0 DUP1 REVERT JUMPDEST POP PUSH2 0x39C PUSH2 0x6BF CALLDATASIZE PUSH1 0x4 PUSH2 0x222A JUMP JUMPDEST PUSH2 0x105C JUMP JUMPDEST CALLVALUE DUP1 ISZERO PUSH2 0x6D0 JUMPI PUSH1 0x0 DUP1 REVERT JUMPDEST POP PUSH2 0x2FE PUSH1 0x11 SLOAD DUP2 JUMP JUMPDEST PUSH2 0x39C PUSH2 0x6E8 CALLDATASIZE PUSH1 0x4 PUSH2 0x23D4 JUMP JUMPDEST PUSH2 0x10AD JUMP JUMPDEST CALLVALUE DUP1 ISZERO PUSH2 0x6F9 JUMPI PUSH1 0x0 DUP1 REVERT JUMPDEST POP PUSH2 0x39C PUSH2 0x708 CALLDATASIZE PUSH1 0x4 PUSH2 0x22FA JUMP JUMPDEST PUSH2 0x1311 JUMP JUMPDEST CALLVALUE DUP1 ISZERO PUSH2 0x719 JUMPI PUSH1 0x0 DUP1 REVERT JUMPDEST POP PUSH2 0x321 PUSH2 0x728 CALLDATASIZE PUSH1 0x4 PUSH2 0x2315 JUMP JUMPDEST PUSH2 0x1357 JUMP JUMPDEST CALLVALUE DUP1 ISZERO PUSH2 0x739 JUMPI PUSH1 0x0 DUP1 REVERT JUMPDEST POP PUSH2 0x39C PUSH2 0x748 CALLDATASIZE PUSH1 0x4 PUSH2 0x2315 JUMP JUMPDEST PUSH2 0x14C6 JUMP JUMPDEST PUSH2 0x39C PUSH2 0x75B CALLDATASIZE PUSH1 0x4 PUSH2 0x23D4 JUMP JUMPDEST PUSH2 0x14F5 JUMP JUMPDEST CALLVALUE DUP1 ISZERO PUSH2 0x76C JUMPI PUSH1 0x0 DUP1 REVERT JUMPDEST POP PUSH2 0x2FE PUSH1 0xF SLOAD DUP2 JUMP JUMPDEST CALLVALUE DUP1 ISZERO PUSH2 0x782 JUMPI PUSH1 0x0 DUP1 REVERT JUMPDEST POP PUSH2 0x39C PUSH2 0x791 CALLDATASIZE PUSH1 0x4 PUSH2 0x2315 JUMP JUMPDEST PUSH2 0x166F JUMP JUMPDEST CALLVALUE DUP1 ISZERO PUSH2 0x7A2 JUMPI PUSH1 0x0 DUP1 REVERT JUMPDEST POP PUSH2 0x39C PUSH2 0x7B1 CALLDATASIZE PUSH1 0x4 PUSH2 0x22FA JUMP JUMPDEST PUSH2 0x169E JUMP JUMPDEST CALLVALUE DUP1 ISZERO PUSH2 0x7C2 JUMPI PUSH1 0x0 DUP1 REVERT JUMPDEST POP PUSH2 0x2D3 PUSH2 0x7D1 CALLDATASIZE PUSH1 0x4 PUSH2 0x21BB JUMP JUMPDEST PUSH1 0x1 PUSH1 0x1 PUSH1 0xA0 SHL SUB SWAP2 DUP3 AND PUSH1 0x0 SWAP1 DUP2 MSTORE PUSH1 0x7 PUSH1 0x20 SWAP1 DUP2 MSTORE PUSH1 0x40 DUP1 DUP4 KECCAK256 SWAP4 SWAP1 SWAP5 AND DUP3 MSTORE SWAP2 SWAP1 SWAP2 MSTORE KECCAK256 SLOAD PUSH1 0xFF AND SWAP1 JUMP JUMPDEST CALLVALUE DUP1 ISZERO PUSH2 0x80B JUMPI PUSH1 0x0 DUP1 REVERT JUMPDEST POP PUSH2 0x39C PUSH2 0x81A CALLDATASIZE PUSH1 0x4 PUSH2 0x2315 JUMP JUMPDEST PUSH2 0x16E2 JUMP JUMPDEST CALLVALUE DUP1 ISZERO PUSH2 0x82B JUMPI PUSH1 0x0 DUP1 REVERT JUMPDEST POP PUSH2 0x39C PUSH2 0x83A CALLDATASIZE PUSH1 0x4 PUSH2 0x23B1 JUMP JUMPDEST PUSH2 0x1711 JUMP JUMPDEST CALLVALUE DUP1 ISZERO PUSH2 0x84B JUMPI PUSH1 0x0 DUP1 REVERT JUMPDEST POP PUSH2 0x39C PUSH2 0x85A CALLDATASIZE PUSH1 0x4 PUSH2 0x21A0 JUMP JUMPDEST PUSH2 0x177F JUMP JUMPDEST CALLVALUE DUP1 ISZERO PUSH2 0x86B JUMPI PUSH1 0x0 DUP1 REVERT JUMPDEST POP PUSH1 0x14 SLOAD PUSH2 0x2D3 SWAP1 PUSH3 0x10000 SWAP1 DIV PUSH1 0xFF AND DUP2 JUMP JUMPDEST PUSH1 0x0 PUSH1 0x1 PUSH1 0x1 PUSH1 0xE0 SHL SUB NOT DUP3 AND PUSH4 0x80AC58CD PUSH1 0xE0 SHL EQ DUP1 PUSH2 0x8B0 JUMPI POP PUSH1 0x1 PUSH1 0x1 PUSH1 0xE0 SHL SUB NOT DUP3 AND PUSH4 0x5B5E139F PUSH1 0xE0 SHL EQ JUMPDEST DUP1 PUSH2 0x8CB JUMPI POP PUSH4 0x1FFC9A7 PUSH1 0xE0 SHL PUSH1 0x1 PUSH1 0x1 PUSH1 0xE0 SHL SUB NOT DUP4 AND EQ JUMPDEST SWAP3 SWAP2 POP POP JUMP JUMPDEST PUSH1 0x60 PUSH1 0x2 DUP1 SLOAD PUSH2 0x8E0 SWAP1 PUSH2 0x278B JUMP JUMPDEST DUP1 PUSH1 0x1F ADD PUSH1 0x20 DUP1 SWAP2 DIV MUL PUSH1 0x20 ADD PUSH1 0x40 MLOAD SWAP1 DUP2 ADD PUSH1 0x40 MSTORE DUP1 SWAP3 SWAP2 SWAP1 DUP2 DUP2 MSTORE PUSH1 0x20 ADD DUP3 DUP1 SLOAD PUSH2 0x90C SWAP1 PUSH2 0x278B JUMP JUMPDEST DUP1 ISZERO PUSH2 0x959 JUMPI DUP1 PUSH1 0x1F LT PUSH2 0x92E JUMPI PUSH2 0x100 DUP1 DUP4 SLOAD DIV MUL DUP4 MSTORE SWAP2 PUSH1 0x20 ADD SWAP2 PUSH2 0x959 JUMP JUMPDEST DUP3 ADD SWAP2 SWAP1 PUSH1 0x0 MSTORE PUSH1 0x20 PUSH1 0x0 KECCAK256 SWAP1 JUMPDEST DUP2 SLOAD DUP2 MSTORE SWAP1 PUSH1 0x1 ADD SWAP1 PUSH1 0x20 ADD DUP1 DUP4 GT PUSH2 0x93C JUMPI DUP3 SWAP1 SUB PUSH1 0x1F AND DUP3 ADD SWAP2 JUMPDEST POP POP POP POP POP SWAP1 POP SWAP1 JUMP JUMPDEST PUSH1 0x0 PUSH2 0x96E DUP3 PUSH2 0x1817 JUMP JUMPDEST PUSH2 0x98B JUMPI PUSH1 0x40 MLOAD PUSH4 0x33D1C039 PUSH1 0xE2 SHL DUP2 MSTORE PUSH1 0x4 ADD PUSH1 0x40 MLOAD DUP1 SWAP2 SUB SWAP1 REVERT JUMPDEST POP PUSH1 0x0 SWAP1 DUP2 MSTORE PUSH1 0x6 PUSH1 0x20 MSTORE PUSH1 0x40 SWAP1 KECCAK256 SLOAD PUSH1 0x1 PUSH1 0x1 PUSH1 0xA0 SHL SUB AND SWAP1 JUMP JUMPDEST PUSH1 0x0 PUSH2 0x9B2 DUP3 PUSH2 0xEA7 JUMP JUMPDEST SWAP1 POP DUP1 PUSH1 0x1 PUSH1 0x1 PUSH1 0xA0 SHL SUB AND DUP4 PUSH1 0x1 PUSH1 0x1 PUSH1 0xA0 SHL SUB AND EQ ISZERO PUSH2 0x9E7 JUMPI PUSH1 0x40 MLOAD PUSH4 0x250FDEE3 PUSH1 0xE2 SHL DUP2 MSTORE PUSH1 0x4 ADD PUSH1 0x40 MLOAD DUP1 SWAP2 SUB SWAP1 REVERT JUMPDEST CALLER PUSH1 0x1 PUSH1 0x1 PUSH1 0xA0 SHL SUB DUP3 AND EQ DUP1 ISZERO SWAP1 PUSH2 0xA07 JUMPI POP PUSH2 0xA05 DUP2 CALLER PUSH2 0x7D1 JUMP JUMPDEST ISZERO JUMPDEST ISZERO PUSH2 0xA25 JUMPI PUSH1 0x40 MLOAD PUSH4 0x67D9DCA1 PUSH1 0xE1 SHL DUP2 MSTORE PUSH1 0x4 ADD PUSH1 0x40 MLOAD DUP1 SWAP2 SUB SWAP1 REVERT JUMPDEST PUSH2 0xA30 DUP4 DUP4 DUP4 PUSH2 0x1842 JUMP JUMPDEST POP POP POP JUMP JUMPDEST PUSH1 0x8 SLOAD PUSH1 0x1 PUSH1 0x1 PUSH1 0xA0 SHL SUB AND CALLER EQ PUSH2 0xA68 JUMPI PUSH1 0x40 MLOAD PUSH3 0x461BCD PUSH1 0xE5 SHL DUP2 MSTORE PUSH1 0x4 ADD PUSH2 0xA5F SWAP1 PUSH2 0x2632 JUMP JUMPDEST PUSH1 0x40 MLOAD DUP1 SWAP2 SUB SWAP1 REVERT JUMPDEST DUP1 MLOAD PUSH2 0xA7B SWAP1 PUSH1 0xA SWAP1 PUSH1 0x20 DUP5 ADD SWAP1 PUSH2 0x2083 JUMP JUMPDEST POP POP JUMP JUMPDEST PUSH1 0x8 SLOAD PUSH1 0x1 PUSH1 0x1 PUSH1 0xA0 SHL SUB AND CALLER EQ PUSH2 0xAA9 JUMPI PUSH1 0x40 MLOAD PUSH3 0x461BCD PUSH1 0xE5 SHL DUP2 MSTORE PUSH1 0x4 ADD PUSH2 0xA5F SWAP1 PUSH2 0x2632 JUMP JUMPDEST PUSH1 0x14 DUP1 SLOAD PUSH1 0xFF NOT AND SWAP2 ISZERO ISZERO SWAP2 SWAP1 SWAP2 OR SWAP1 SSTORE JUMP JUMPDEST PUSH2 0xA30 DUP4 DUP4 DUP4 PUSH2 0x189E JUMP JUMPDEST PUSH1 0x8 SLOAD PUSH1 0x1 PUSH1 0x1 PUSH1 0xA0 SHL SUB AND CALLER EQ PUSH2 0xAF1 JUMPI PUSH1 0x40 MLOAD PUSH3 0x461BCD PUSH1 0xE5 SHL DUP2 MSTORE PUSH1 0x4 ADD PUSH2 0xA5F SWAP1 PUSH2 0x2632 JUMP JUMPDEST PUSH1 0xC SSTORE JUMP JUMPDEST PUSH1 0x8 SLOAD PUSH1 0x1 PUSH1 0x1 PUSH1 0xA0 SHL SUB AND CALLER EQ PUSH2 0xB20 JUMPI PUSH1 0x40 MLOAD PUSH3 0x461BCD PUSH1 0xE5 SHL DUP2 MSTORE PUSH1 0x4 ADD PUSH2 0xA5F SWAP1 PUSH2 0x2632 JUMP JUMPDEST PUSH1 0x0 PUSH2 0xB34 PUSH1 0x8 SLOAD PUSH1 0x1 PUSH1 0x1 PUSH1 0xA0 SHL SUB AND SWAP1 JUMP JUMPDEST PUSH1 0x1 PUSH1 0x1 PUSH1 0xA0 SHL SUB AND SELFBALANCE PUSH1 0x40 MLOAD PUSH1 0x0 PUSH1 0x40 MLOAD DUP1 DUP4 SUB DUP2 DUP6 DUP8 GAS CALL SWAP3 POP POP POP RETURNDATASIZE DUP1 PUSH1 0x0 DUP2 EQ PUSH2 0xB7E JUMPI PUSH1 0x40 MLOAD SWAP2 POP PUSH1 0x1F NOT PUSH1 0x3F RETURNDATASIZE ADD AND DUP3 ADD PUSH1 0x40 MSTORE RETURNDATASIZE DUP3 MSTORE RETURNDATASIZE PUSH1 0x0 PUSH1 0x20 DUP5 ADD RETURNDATACOPY PUSH2 0xB83 JUMP JUMPDEST PUSH1 0x60 SWAP2 POP JUMPDEST POP POP SWAP1 POP DUP1 PUSH2 0xB91 JUMPI PUSH1 0x0 DUP1 REVERT JUMPDEST POP JUMP JUMPDEST PUSH2 0xA30 DUP4 DUP4 DUP4 PUSH1 0x40 MLOAD DUP1 PUSH1 0x20 ADD PUSH1 0x40 MSTORE DUP1 PUSH1 0x0 DUP2 MSTORE POP PUSH2 0x105C JUMP JUMPDEST PUSH1 0x8 SLOAD PUSH1 0x1 PUSH1 0x1 PUSH1 0xA0 SHL SUB AND CALLER EQ PUSH2 0xBD9 JUMPI PUSH1 0x40 MLOAD PUSH3 0x461BCD PUSH1 0xE5 SHL DUP2 MSTORE PUSH1 0x4 ADD PUSH2 0xA5F SWAP1 PUSH2 0x2632 JUMP JUMPDEST PUSH1 0x16 SSTORE JUMP JUMPDEST PUSH1 0x8 SLOAD PUSH1 0x1 PUSH1 0x1 PUSH1 0xA0 SHL SUB AND CALLER EQ PUSH2 0xC08 JUMPI PUSH1 0x40 MLOAD PUSH3 0x461BCD PUSH1 0xE5 SHL DUP2 MSTORE PUSH1 0x4 ADD PUSH2 0xA5F SWAP1 PUSH2 0x2632 JUMP JUMPDEST DUP1 MLOAD PUSH2 0xA7B SWAP1 PUSH1 0xB SWAP1 PUSH1 0x20 DUP5 ADD SWAP1 PUSH2 0x2083 JUMP JUMPDEST PUSH1 0xA DUP1 SLOAD PUSH2 0xC28 SWAP1 PUSH2 0x278B JUMP JUMPDEST DUP1 PUSH1 0x1F ADD PUSH1 0x20 DUP1 SWAP2 DIV MUL PUSH1 0x20 ADD PUSH1 0x40 MLOAD SWAP1 DUP2 ADD PUSH1 0x40 MSTORE DUP1 SWAP3 SWAP2 SWAP1 DUP2 DUP2 MSTORE PUSH1 0x20 ADD DUP3 DUP1 SLOAD PUSH2 0xC54 SWAP1 PUSH2 0x278B JUMP JUMPDEST DUP1 ISZERO PUSH2 0xCA1 JUMPI DUP1 PUSH1 0x1F LT PUSH2 0xC76 JUMPI PUSH2 0x100 DUP1 DUP4 SLOAD DIV MUL DUP4 MSTORE SWAP2 PUSH1 0x20 ADD SWAP2 PUSH2 0xCA1 JUMP JUMPDEST DUP3 ADD SWAP2 SWAP1 PUSH1 0x0 MSTORE PUSH1 0x20 PUSH1 0x0 KECCAK256 SWAP1 JUMPDEST DUP2 SLOAD DUP2 MSTORE SWAP1 PUSH1 0x1 ADD SWAP1 PUSH1 0x20 ADD DUP1 DUP4 GT PUSH2 0xC84 JUMPI DUP3 SWAP1 SUB PUSH1 0x1F AND DUP3 ADD SWAP2 JUMPDEST POP POP POP POP POP DUP2 JUMP JUMPDEST DUP1 ORIGIN CALLER EQ PUSH2 0xCC9 JUMPI PUSH1 0x40 MLOAD PUSH3 0x461BCD PUSH1 0xE5 SHL DUP2 MSTORE PUSH1 0x4 ADD PUSH2 0xA5F SWAP1 PUSH2 0x25FB JUMP JUMPDEST PUSH1 0x0 DUP2 GT DUP1 ISZERO PUSH2 0xCDB JUMPI POP PUSH1 0x10 SLOAD DUP2 GT ISZERO JUMPDEST PUSH2 0xCF7 JUMPI PUSH1 0x40 MLOAD PUSH3 0x461BCD PUSH1 0xE5 SHL DUP2 MSTORE PUSH1 0x4 ADD PUSH2 0xA5F SWAP1 PUSH2 0x25CD JUMP JUMPDEST PUSH1 0xF SLOAD DUP2 PUSH2 0xD08 PUSH1 0x1 SLOAD PUSH1 0x0 SLOAD SUB SWAP1 JUMP JUMPDEST PUSH2 0xD12 SWAP2 SWAP1 PUSH2 0x26FD JUMP JUMPDEST GT ISZERO PUSH2 0xD30 JUMPI PUSH1 0x40 MLOAD PUSH3 0x461BCD PUSH1 0xE5 SHL DUP2 MSTORE PUSH1 0x4 ADD PUSH2 0xA5F SWAP1 PUSH2 0x269E JUMP JUMPDEST PUSH1 0x14 SLOAD PUSH1 0xFF AND ISZERO PUSH2 0xD53 JUMPI PUSH1 0x40 MLOAD PUSH3 0x461BCD PUSH1 0xE5 SHL DUP2 MSTORE PUSH1 0x4 ADD PUSH2 0xA5F SWAP1 PUSH2 0x2667 JUMP JUMPDEST PUSH1 0x14 SLOAD PUSH3 0x10000 SWAP1 DIV PUSH1 0xFF AND ISZERO PUSH2 0xDAC JUMPI PUSH1 0x40 MLOAD PUSH3 0x461BCD PUSH1 0xE5 SHL DUP2 MSTORE PUSH1 0x20 PUSH1 0x4 DUP3 ADD MSTORE PUSH1 0x1B PUSH1 0x24 DUP3 ADD MSTORE PUSH32 0x4E6F742076616C6964207573657220666F72207072652073616C650000000000 PUSH1 0x44 DUP3 ADD MSTORE PUSH1 0x64 ADD PUSH2 0xA5F JUMP JUMPDEST DUP2 PUSH1 0xC SLOAD PUSH2 0xDBA SWAP2 SWAP1 PUSH2 0x2729 JUMP JUMPDEST CALLVALUE LT ISZERO PUSH2 0xDFF JUMPI PUSH1 0x40 MLOAD PUSH3 0x461BCD PUSH1 0xE5 SHL DUP2 MSTORE PUSH1 0x20 PUSH1 0x4 DUP3 ADD MSTORE PUSH1 0x13 PUSH1 0x24 DUP3 ADD MSTORE PUSH19 0x496E73756666696369656E742066756E647321 PUSH1 0x68 SHL PUSH1 0x44 DUP3 ADD MSTORE PUSH1 0x64 ADD PUSH2 0xA5F JUMP JUMPDEST PUSH1 0x11 SLOAD CALLER PUSH1 0x0 SWAP1 DUP2 MSTORE PUSH1 0x15 PUSH1 0x20 MSTORE PUSH1 0x40 SWAP1 KECCAK256 SLOAD PUSH2 0xE1D SWAP1 DUP5 SWAP1 PUSH2 0x26FD JUMP JUMPDEST GT ISZERO PUSH2 0xE6B JUMPI PUSH1 0x40 MLOAD PUSH3 0x461BCD PUSH1 0xE5 SHL DUP2 MSTORE PUSH1 0x20 PUSH1 0x4 DUP3 ADD MSTORE PUSH1 0x1C PUSH1 0x24 DUP3 ADD MSTORE PUSH32 0x6D6178204E465420706572206164647265737320657863656564656400000000 PUSH1 0x44 DUP3 ADD MSTORE PUSH1 0x64 ADD PUSH2 0xA5F JUMP JUMPDEST CALLER PUSH1 0x0 SWAP1 DUP2 MSTORE PUSH1 0x15 PUSH1 0x20 MSTORE PUSH1 0x40 DUP2 KECCAK256 DUP1 SLOAD DUP5 SWAP3 SWAP1 PUSH2 0xE8A SWAP1 DUP5 SWAP1 PUSH2 0x26FD JUMP JUMPDEST SWAP1 SWAP2 SSTORE POP PUSH2 0xA7B SWAP1 POP CALLER DUP4 PUSH2 0x1A8E JUMP JUMPDEST PUSH1 0x9 DUP1 SLOAD PUSH2 0xC28 SWAP1 PUSH2 0x278B JUMP JUMPDEST PUSH1 0x0 PUSH2 0xEB2 DUP3 PUSH2 0x1AA8 JUMP JUMPDEST MLOAD SWAP3 SWAP2 POP POP JUMP JUMPDEST PUSH1 0x0 PUSH1 0x1 PUSH1 0x1 PUSH1 0xA0 SHL SUB DUP3 AND PUSH2 0xEE2 JUMPI PUSH1 0x40 MLOAD PUSH4 0x23D3AD81 PUSH1 0xE2 SHL DUP2 MSTORE PUSH1 0x4 ADD PUSH1 0x40 MLOAD DUP1 SWAP2 SUB SWAP1 REVERT JUMPDEST POP PUSH1 0x1 PUSH1 0x1 PUSH1 0xA0 SHL SUB AND PUSH1 0x0 SWAP1 DUP2 MSTORE PUSH1 0x5 PUSH1 0x20 MSTORE PUSH1 0x40 SWAP1 KECCAK256 SLOAD PUSH8 0xFFFFFFFFFFFFFFFF AND SWAP1 JUMP JUMPDEST PUSH1 0x8 SLOAD PUSH1 0x1 PUSH1 0x1 PUSH1 0xA0 SHL SUB AND CALLER EQ PUSH2 0xF32 JUMPI PUSH1 0x40 MLOAD PUSH3 0x461BCD PUSH1 0xE5 SHL DUP2 MSTORE PUSH1 0x4 ADD PUSH2 0xA5F SWAP1 PUSH2 0x2632 JUMP JUMPDEST PUSH2 0xF3C PUSH1 0x0 PUSH2 0x1BC4 JUMP JUMPDEST JUMP JUMPDEST PUSH1 0x8 SLOAD PUSH1 0x1 PUSH1 0x1 PUSH1 0xA0 SHL SUB AND CALLER EQ PUSH2 0xF68 JUMPI PUSH1 0x40 MLOAD PUSH3 0x461BCD PUSH1 0xE5 SHL DUP2 MSTORE PUSH1 0x4 ADD PUSH2 0xA5F SWAP1 PUSH2 0x2632 JUMP JUMPDEST DUP1 MLOAD PUSH2 0xA7B SWAP1 PUSH1 0x9 SWAP1 PUSH1 0x20 DUP5 ADD SWAP1 PUSH2 0x2083 JUMP JUMPDEST PUSH1 0x60 PUSH1 0x3 DUP1 SLOAD PUSH2 0x8E0 SWAP1 PUSH2 0x278B JUMP JUMPDEST PUSH1 0x1 PUSH1 0x1 PUSH1 0xA0 SHL SUB DUP3 AND CALLER EQ ISZERO PUSH2 0xFB4 JUMPI PUSH1 0x40 MLOAD PUSH4 0xB06307DB PUSH1 0xE0 SHL DUP2 MSTORE PUSH1 0x4 ADD PUSH1 0x40 MLOAD DUP1 SWAP2 SUB SWAP1 REVERT JUMPDEST CALLER PUSH1 0x0 DUP2 DUP2 MSTORE PUSH1 0x7 PUSH1 0x20 SWAP1 DUP2 MSTORE PUSH1 0x40 DUP1 DUP4 KECCAK256 PUSH1 0x1 PUSH1 0x1 PUSH1 0xA0 SHL SUB DUP8 AND DUP1 DUP6 MSTORE SWAP1 DUP4 MSTORE SWAP3 DUP2 SWAP1 KECCAK256 DUP1 SLOAD PUSH1 0xFF NOT AND DUP7 ISZERO ISZERO SWAP1 DUP2 OR SWAP1 SWAP2 SSTORE SWAP1 MLOAD SWAP1 DUP2 MSTORE SWAP2 SWAP3 SWAP2 PUSH32 0x17307EAB39AB6107E8899845AD3D59BD9653F200F220920489CA2B5937696C31 SWAP2 ADD PUSH1 0x40 MLOAD DUP1 SWAP2 SUB SWAP1 LOG3 POP POP JUMP JUMPDEST PUSH1 0xB DUP1 SLOAD PUSH2 0xC28 SWAP1 PUSH2 0x278B JUMP JUMPDEST PUSH1 0x8 SLOAD PUSH1 0x1 PUSH1 0x1 PUSH1 0xA0 SHL SUB AND CALLER EQ PUSH2 0x1057 JUMPI PUSH1 0x40 MLOAD PUSH3 0x461BCD PUSH1 0xE5 SHL DUP2 MSTORE PUSH1 0x4 ADD PUSH2 0xA5F SWAP1 PUSH2 0x2632 JUMP JUMPDEST PUSH1 0x10 SSTORE JUMP JUMPDEST PUSH2 0x1067 DUP5 DUP5 DUP5 PUSH2 0x189E JUMP JUMPDEST PUSH1 0x1 PUSH1 0x1 PUSH1 0xA0 SHL SUB DUP4 AND EXTCODESIZE ISZERO ISZERO DUP1 ISZERO PUSH2 0x1089 JUMPI POP PUSH2 0x1087 DUP5 DUP5 DUP5 DUP5 PUSH2 0x1C16 JUMP JUMPDEST ISZERO JUMPDEST ISZERO PUSH2 0x10A7 JUMPI PUSH1 0x40 MLOAD PUSH4 0x68D2BF6B PUSH1 0xE1 SHL DUP2 MSTORE PUSH1 0x4 ADD PUSH1 0x40 MLOAD DUP1 SWAP2 SUB SWAP1 REVERT JUMPDEST POP POP POP POP JUMP JUMPDEST DUP2 ORIGIN CALLER EQ PUSH2 0x10CD JUMPI PUSH1 0x40 MLOAD PUSH3 0x461BCD PUSH1 0xE5 SHL DUP2 MSTORE PUSH1 0x4 ADD PUSH2 0xA5F SWAP1 PUSH2 0x25FB JUMP JUMPDEST PUSH1 0x0 DUP2 GT DUP1 ISZERO PUSH2 0x10DF JUMPI POP PUSH1 0x10 SLOAD DUP2 GT ISZERO JUMPDEST PUSH2 0x10FB JUMPI PUSH1 0x40 MLOAD PUSH3 0x461BCD PUSH1 0xE5 SHL DUP2 MSTORE PUSH1 0x4 ADD PUSH2 0xA5F SWAP1 PUSH2 0x25CD JUMP JUMPDEST PUSH1 0xF SLOAD DUP2 PUSH2 0x110C PUSH1 0x1 SLOAD PUSH1 0x0 SLOAD SUB SWAP1 JUMP JUMPDEST PUSH2 0x1116 SWAP2 SWAP1 PUSH2 0x26FD JUMP JUMPDEST GT ISZERO PUSH2 0x1134 JUMPI PUSH1 0x40 MLOAD PUSH3 0x461BCD PUSH1 0xE5 SHL DUP2 MSTORE PUSH1 0x4 ADD PUSH2 0xA5F SWAP1 PUSH2 0x269E JUMP JUMPDEST PUSH1 0x14 SLOAD PUSH1 0xFF AND ISZERO PUSH2 0x1157 JUMPI PUSH1 0x40 MLOAD PUSH3 0x461BCD PUSH1 0xE5 SHL DUP2 MSTORE PUSH1 0x4 ADD PUSH2 0xA5F SWAP1 PUSH2 0x2667 JUMP JUMPDEST PUSH1 0x14 SLOAD PUSH3 0x10000 SWAP1 DIV PUSH1 0xFF AND PUSH2 0x11A1 JUMPI PUSH1 0x40 MLOAD PUSH3 0x461BCD PUSH1 0xE5 SHL DUP2 MSTORE PUSH1 0x20 PUSH1 0x4 DUP3 ADD MSTORE PUSH1 0xF PUSH1 0x24 DUP3 ADD MSTORE PUSH15 0x4E6F7420696E207072652073616C65 PUSH1 0x88 SHL PUSH1 0x44 DUP3 ADD MSTORE PUSH1 0x64 ADD PUSH2 0xA5F JUMP JUMPDEST PUSH1 0x17 SLOAD PUSH1 0x40 MLOAD PUSH12 0xFFFFFFFFFFFFFFFFFFFFFFFF NOT CALLER PUSH1 0x60 SHL AND PUSH1 0x20 DUP3 ADD MSTORE PUSH2 0x11E4 SWAP2 DUP5 SWAP2 PUSH1 0x34 ADD JUMPDEST PUSH1 0x40 MLOAD PUSH1 0x20 DUP2 DUP4 SUB SUB DUP2 MSTORE SWAP1 PUSH1 0x40 MSTORE DUP1 MLOAD SWAP1 PUSH1 0x20 ADD KECCAK256 PUSH2 0x1D0E JUMP JUMPDEST PUSH2 0x1224 JUMPI PUSH1 0x40 MLOAD PUSH3 0x461BCD PUSH1 0xE5 SHL DUP2 MSTORE PUSH1 0x20 PUSH1 0x4 DUP3 ADD MSTORE PUSH1 0x11 PUSH1 0x24 DUP3 ADD MSTORE PUSH17 0x41646472657373206973206E6F74206F67 PUSH1 0x78 SHL PUSH1 0x44 DUP3 ADD MSTORE PUSH1 0x64 ADD PUSH2 0xA5F JUMP JUMPDEST DUP3 PUSH1 0xE SLOAD PUSH2 0x1232 SWAP2 SWAP1 PUSH2 0x2729 JUMP JUMPDEST CALLVALUE LT ISZERO PUSH2 0x1276 JUMPI PUSH1 0x40 MLOAD PUSH3 0x461BCD PUSH1 0xE5 SHL DUP2 MSTORE PUSH1 0x20 PUSH1 0x4 DUP3 ADD MSTORE PUSH1 0x12 PUSH1 0x24 DUP3 ADD MSTORE PUSH18 0x696E73756666696369656E742066756E6473 PUSH1 0x70 SHL PUSH1 0x44 DUP3 ADD MSTORE PUSH1 0x64 ADD PUSH2 0xA5F JUMP JUMPDEST PUSH1 0x12 SLOAD CALLER PUSH1 0x0 SWAP1 DUP2 MSTORE PUSH1 0x15 PUSH1 0x20 MSTORE PUSH1 0x40 SWAP1 KECCAK256 SLOAD PUSH2 0x1294 SWAP1 DUP6 SWAP1 PUSH2 0x26FD JUMP JUMPDEST GT ISZERO PUSH2 0x12E2 JUMPI PUSH1 0x40 MLOAD PUSH3 0x461BCD PUSH1 0xE5 SHL DUP2 MSTORE PUSH1 0x20 PUSH1 0x4 DUP3 ADD MSTORE PUSH1 0x1C PUSH1 0x24 DUP3 ADD MSTORE PUSH32 0x6D6178204E465420706572206164647265737320657863656564656400000000 PUSH1 0x44 DUP3 ADD MSTORE PUSH1 0x64 ADD PUSH2 0xA5F JUMP JUMPDEST CALLER PUSH1 0x0 SWAP1 DUP2 MSTORE PUSH1 0x15 PUSH1 0x20 MSTORE PUSH1 0x40 DUP2 KECCAK256 DUP1 SLOAD DUP6 SWAP3 SWAP1 PUSH2 0x1301 SWAP1 DUP5 SWAP1 PUSH2 0x26FD JUMP JUMPDEST SWAP1 SWAP2 SSTORE POP PUSH2 0xA30 SWAP1 POP CALLER DUP5 PUSH2 0x1A8E JUMP JUMPDEST PUSH1 0x8 SLOAD PUSH1 0x1 PUSH1 0x1 PUSH1 0xA0 SHL SUB AND CALLER EQ PUSH2 0x133B JUMPI PUSH1 0x40 MLOAD PUSH3 0x461BCD PUSH1 0xE5 SHL DUP2 MSTORE PUSH1 0x4 ADD PUSH2 0xA5F SWAP1 PUSH2 0x2632 JUMP JUMPDEST PUSH1 0x14 DUP1 SLOAD SWAP2 ISZERO ISZERO PUSH3 0x10000 MUL PUSH3 0xFF0000 NOT SWAP1 SWAP3 AND SWAP2 SWAP1 SWAP2 OR SWAP1 SSTORE JUMP JUMPDEST PUSH1 0x60 PUSH2 0x1362 DUP3 PUSH2 0x1817 JUMP JUMPDEST PUSH2 0x13C6 JUMPI PUSH1 0x40 MLOAD PUSH3 0x461BCD PUSH1 0xE5 SHL DUP2 MSTORE PUSH1 0x20 PUSH1 0x4 DUP3 ADD MSTORE PUSH1 0x2F PUSH1 0x24 DUP3 ADD MSTORE PUSH32 0x4552433732314D657461646174613A2055524920717565727920666F72206E6F PUSH1 0x44 DUP3 ADD MSTORE PUSH15 0x3732BC34B9BA32B73A103A37B5B2B7 PUSH1 0x89 SHL PUSH1 0x64 DUP3 ADD MSTORE PUSH1 0x84 ADD PUSH2 0xA5F JUMP JUMPDEST PUSH1 0x14 SLOAD PUSH2 0x100 SWAP1 DIV PUSH1 0xFF AND PUSH2 0x1467 JUMPI PUSH1 0xB DUP1 SLOAD PUSH2 0x13E2 SWAP1 PUSH2 0x278B JUMP JUMPDEST DUP1 PUSH1 0x1F ADD PUSH1 0x20 DUP1 SWAP2 DIV MUL PUSH1 0x20 ADD PUSH1 0x40 MLOAD SWAP1 DUP2 ADD PUSH1 0x40 MSTORE DUP1 SWAP3 SWAP2 SWAP1 DUP2 DUP2 MSTORE PUSH1 0x20 ADD DUP3 DUP1 SLOAD PUSH2 0x140E SWAP1 PUSH2 0x278B JUMP JUMPDEST DUP1 ISZERO PUSH2 0x145B JUMPI DUP1 PUSH1 0x1F LT PUSH2 0x1430 JUMPI PUSH2 0x100 DUP1 DUP4 SLOAD DIV MUL DUP4 MSTORE SWAP2 PUSH1 0x20 ADD SWAP2 PUSH2 0x145B JUMP JUMPDEST DUP3 ADD SWAP2 SWAP1 PUSH1 0x0 MSTORE PUSH1 0x20 PUSH1 0x0 KECCAK256 SWAP1 JUMPDEST DUP2 SLOAD DUP2 MSTORE SWAP1 PUSH1 0x1 ADD SWAP1 PUSH1 0x20 ADD DUP1 DUP4 GT PUSH2 0x143E JUMPI DUP3 SWAP1 SUB PUSH1 0x1F AND DUP3 ADD SWAP2 JUMPDEST POP POP POP POP POP SWAP1 POP SWAP2 SWAP1 POP JUMP JUMPDEST PUSH1 0x0 PUSH2 0x1471 PUSH2 0x1D24 JUMP JUMPDEST SWAP1 POP PUSH1 0x0 DUP2 MLOAD GT PUSH2 0x1491 JUMPI PUSH1 0x40 MLOAD DUP1 PUSH1 0x20 ADD PUSH1 0x40 MSTORE DUP1 PUSH1 0x0 DUP2 MSTORE POP PUSH2 0x14BF JUMP JUMPDEST DUP1 PUSH2 0x149B DUP5 PUSH2 0x1D33 JUMP JUMPDEST PUSH1 0xA PUSH1 0x40 MLOAD PUSH1 0x20 ADD PUSH2 0x14AF SWAP4 SWAP3 SWAP2 SWAP1 PUSH2 0x24B9 JUMP JUMPDEST PUSH1 0x40 MLOAD PUSH1 0x20 DUP2 DUP4 SUB SUB DUP2 MSTORE SWAP1 PUSH1 0x40 MSTORE JUMPDEST SWAP4 SWAP3 POP POP POP JUMP JUMPDEST PUSH1 0x8 SLOAD PUSH1 0x1 PUSH1 0x1 PUSH1 0xA0 SHL SUB AND CALLER EQ PUSH2 0x14F0 JUMPI PUSH1 0x40 MLOAD PUSH3 0x461BCD PUSH1 0xE5 SHL DUP2 MSTORE PUSH1 0x4 ADD PUSH2 0xA5F SWAP1 PUSH2 0x2632 JUMP JUMPDEST PUSH1 0xD SSTORE JUMP JUMPDEST DUP2 ORIGIN CALLER EQ PUSH2 0x1515 JUMPI PUSH1 0x40 MLOAD PUSH3 0x461BCD PUSH1 0xE5 SHL DUP2 MSTORE PUSH1 0x4 ADD PUSH2 0xA5F SWAP1 PUSH2 0x25FB JUMP JUMPDEST PUSH1 0x0 DUP2 GT DUP1 ISZERO PUSH2 0x1527 JUMPI POP PUSH1 0x10 SLOAD DUP2 GT ISZERO JUMPDEST PUSH2 0x1543 JUMPI PUSH1 0x40 MLOAD PUSH3 0x461BCD PUSH1 0xE5 SHL DUP2 MSTORE PUSH1 0x4 ADD PUSH2 0xA5F SWAP1 PUSH2 0x25CD JUMP JUMPDEST PUSH1 0xF SLOAD DUP2 PUSH2 0x1554 PUSH1 0x1 SLOAD PUSH1 0x0 SLOAD SUB SWAP1 JUMP JUMPDEST PUSH2 0x155E SWAP2 SWAP1 PUSH2 0x26FD JUMP JUMPDEST GT ISZERO PUSH2 0x157C JUMPI PUSH1 0x40 MLOAD PUSH3 0x461BCD PUSH1 0xE5 SHL DUP2 MSTORE PUSH1 0x4 ADD PUSH2 0xA5F SWAP1 PUSH2 0x269E JUMP JUMPDEST PUSH1 0x14 SLOAD PUSH1 0xFF AND ISZERO PUSH2 0x159F JUMPI PUSH1 0x40 MLOAD PUSH3 0x461BCD PUSH1 0xE5 SHL DUP2 MSTORE PUSH1 0x4 ADD PUSH2 0xA5F SWAP1 PUSH2 0x2667 JUMP JUMPDEST PUSH1 0x14 SLOAD PUSH3 0x10000 SWAP1 DIV PUSH1 0xFF AND PUSH2 0x15E9 JUMPI PUSH1 0x40 MLOAD PUSH3 0x461BCD PUSH1 0xE5 SHL DUP2 MSTORE PUSH1 0x20 PUSH1 0x4 DUP3 ADD MSTORE PUSH1 0xF PUSH1 0x24 DUP3 ADD MSTORE PUSH15 0x4E6F7420696E207072652073616C65 PUSH1 0x88 SHL PUSH1 0x44 DUP3 ADD MSTORE PUSH1 0x64 ADD PUSH2 0xA5F JUMP JUMPDEST PUSH1 0x16 SLOAD PUSH1 0x40 MLOAD PUSH12 0xFFFFFFFFFFFFFFFFFFFFFFFF NOT CALLER PUSH1 0x60 SHL AND PUSH1 0x20 DUP3 ADD MSTORE PUSH2 0x1615 SWAP2 DUP5 SWAP2 PUSH1 0x34 ADD PUSH2 0x11C9 JUMP JUMPDEST PUSH2 0x1661 JUMPI PUSH1 0x40 MLOAD PUSH3 0x461BCD PUSH1 0xE5 SHL DUP2 MSTORE PUSH1 0x20 PUSH1 0x4 DUP3 ADD MSTORE PUSH1 0x1A PUSH1 0x24 DUP3 ADD MSTORE PUSH32 0x41646472657373206973206E6F742077686974656C6973746564000000000000 PUSH1 0x44 DUP3 ADD MSTORE PUSH1 0x64 ADD PUSH2 0xA5F JUMP JUMPDEST DUP3 PUSH1 0xD SLOAD PUSH2 0x1232 SWAP2 SWAP1 PUSH2 0x2729 JUMP JUMPDEST PUSH1 0x8 SLOAD PUSH1 0x1 PUSH1 0x1 PUSH1 0xA0 SHL SUB AND CALLER EQ PUSH2 0x1699 JUMPI PUSH1 0x40 MLOAD PUSH3 0x461BCD PUSH1 0xE5 SHL DUP2 MSTORE PUSH1 0x4 ADD PUSH2 0xA5F SWAP1 PUSH2 0x2632 JUMP JUMPDEST PUSH1 0x17 SSTORE JUMP JUMPDEST PUSH1 0x8 SLOAD PUSH1 0x1 PUSH1 0x1 PUSH1 0xA0 SHL SUB AND CALLER EQ PUSH2 0x16C8 JUMPI PUSH1 0x40 MLOAD PUSH3 0x461BCD PUSH1 0xE5 SHL DUP2 MSTORE PUSH1 0x4 ADD PUSH2 0xA5F SWAP1 PUSH2 0x2632 JUMP JUMPDEST PUSH1 0x14 DUP1 SLOAD SWAP2 ISZERO ISZERO PUSH2 0x100 MUL PUSH2 0xFF00 NOT SWAP1 SWAP3 AND SWAP2 SWAP1 SWAP2 OR SWAP1 SSTORE JUMP JUMPDEST PUSH1 0x8 SLOAD PUSH1 0x1 PUSH1 0x1 PUSH1 0xA0 SHL SUB AND CALLER EQ PUSH2 0x170C JUMPI PUSH1 0x40 MLOAD PUSH3 0x461BCD PUSH1 0xE5 SHL DUP2 MSTORE PUSH1 0x4 ADD PUSH2 0xA5F SWAP1 PUSH2 0x2632 JUMP JUMPDEST PUSH1 0xE SSTORE JUMP JUMPDEST DUP2 PUSH1 0x13 SLOAD DUP2 PUSH2 0x1723 PUSH1 0x1 SLOAD PUSH1 0x0 SLOAD SUB SWAP1 JUMP JUMPDEST PUSH2 0x172D SWAP2 SWAP1 PUSH2 0x26FD JUMP JUMPDEST GT ISZERO PUSH2 0x174B JUMPI PUSH1 0x40 MLOAD PUSH3 0x461BCD PUSH1 0xE5 SHL DUP2 MSTORE PUSH1 0x4 ADD PUSH2 0xA5F SWAP1 PUSH2 0x269E JUMP JUMPDEST PUSH1 0x8 SLOAD PUSH1 0x1 PUSH1 0x1 PUSH1 0xA0 SHL SUB AND CALLER EQ PUSH2 0x1775 JUMPI PUSH1 0x40 MLOAD PUSH3 0x461BCD PUSH1 0xE5 SHL DUP2 MSTORE PUSH1 0x4 ADD PUSH2 0xA5F SWAP1 PUSH2 0x2632 JUMP JUMPDEST PUSH2 0xA30 DUP3 DUP5 PUSH2 0x1A8E JUMP JUMPDEST PUSH1 0x8 SLOAD PUSH1 0x1 PUSH1 0x1 PUSH1 0xA0 SHL SUB AND CALLER EQ PUSH2 0x17A9 JUMPI PUSH1 0x40 MLOAD PUSH3 0x461BCD PUSH1 0xE5 SHL DUP2 MSTORE PUSH1 0x4 ADD PUSH2 0xA5F SWAP1 PUSH2 0x2632 JUMP JUMPDEST PUSH1 0x1 PUSH1 0x1 PUSH1 0xA0 SHL SUB DUP2 AND PUSH2 0x180E JUMPI PUSH1 0x40 MLOAD PUSH3 0x461BCD PUSH1 0xE5 SHL DUP2 MSTORE PUSH1 0x20 PUSH1 0x4 DUP3 ADD MSTORE PUSH1 0x26 PUSH1 0x24 DUP3 ADD MSTORE PUSH32 0x4F776E61626C653A206E6577206F776E657220697320746865207A65726F2061 PUSH1 0x44 DUP3 ADD MSTORE PUSH6 0x646472657373 PUSH1 0xD0 SHL PUSH1 0x64 DUP3 ADD MSTORE PUSH1 0x84 ADD PUSH2 0xA5F JUMP JUMPDEST PUSH2 0xB91 DUP2 PUSH2 0x1BC4 JUMP JUMPDEST PUSH1 0x0 DUP1 SLOAD DUP3 LT DUP1 ISZERO PUSH2 0x8CB JUMPI POP POP PUSH1 0x0 SWAP1 DUP2 MSTORE PUSH1 0x4 PUSH1 0x20 MSTORE PUSH1 0x40 SWAP1 KECCAK256 SLOAD PUSH1 0x1 PUSH1 0xE0 SHL SWAP1 DIV PUSH1 0xFF AND ISZERO SWAP1 JUMP JUMPDEST PUSH1 0x0 DUP3 DUP2 MSTORE PUSH1 0x6 PUSH1 0x20 MSTORE PUSH1 0x40 DUP1 DUP3 KECCAK256 DUP1 SLOAD PUSH1 0x1 PUSH1 0x1 PUSH1 0xA0 SHL SUB NOT AND PUSH1 0x1 PUSH1 0x1 PUSH1 0xA0 SHL SUB DUP8 DUP2 AND SWAP2 DUP3 OR SWAP1 SWAP3 SSTORE SWAP2 MLOAD DUP6 SWAP4 SWAP2 DUP6 AND SWAP2 PUSH32 0x8C5BE1E5EBEC7D5BD14F71427D1E84F3DD0314C0F7B2291E5B200AC8C7C3B925 SWAP2 LOG4 POP POP POP JUMP JUMPDEST PUSH1 0x0 PUSH2 0x18A9 DUP3 PUSH2 0x1AA8 JUMP JUMPDEST SWAP1 POP DUP4 PUSH1 0x1 PUSH1 0x1 PUSH1 0xA0 SHL SUB AND DUP2 PUSH1 0x0 ADD MLOAD PUSH1 0x1 PUSH1 0x1 PUSH1 0xA0 SHL SUB AND EQ PUSH2 0x18E0 JUMPI PUSH1 0x40 MLOAD PUSH3 0xA11481 PUSH1 0xE8 SHL DUP2 MSTORE PUSH1 0x4 ADD PUSH1 0x40 MLOAD DUP1 SWAP2 SUB SWAP1 REVERT JUMPDEST PUSH1 0x0 CALLER PUSH1 0x1 PUSH1 0x1 PUSH1 0xA0 SHL SUB DUP7 AND EQ DUP1 PUSH2 0x18FE JUMPI POP PUSH2 0x18FE DUP6 CALLER PUSH2 0x7D1 JUMP JUMPDEST DUP1 PUSH2 0x1919 JUMPI POP CALLER PUSH2 0x190E DUP5 PUSH2 0x963 JUMP JUMPDEST PUSH1 0x1 PUSH1 0x1 PUSH1 0xA0 SHL SUB AND EQ JUMPDEST SWAP1 POP DUP1 PUSH2 0x1939 JUMPI PUSH1 0x40 MLOAD PUSH4 0x2CE44B5F PUSH1 0xE1 SHL DUP2 MSTORE PUSH1 0x4 ADD PUSH1 0x40 MLOAD DUP1 SWAP2 SUB SWAP1 REVERT JUMPDEST PUSH1 0x1 PUSH1 0x1 PUSH1 0xA0 SHL SUB DUP5 AND PUSH2 0x1960 JUMPI PUSH1 0x40 MLOAD PUSH4 0x3A954ECD PUSH1 0xE2 SHL DUP2 MSTORE PUSH1 0x4 ADD PUSH1 0x40 MLOAD DUP1 SWAP2 SUB SWAP1 REVERT JUMPDEST PUSH2 0x196C PUSH1 0x0 DUP5 DUP8 PUSH2 0x1842 JUMP JUMPDEST PUSH1 0x1 PUSH1 0x1 PUSH1 0xA0 SHL SUB DUP6 DUP2 AND PUSH1 0x0 SWAP1 DUP2 MSTORE PUSH1 0x5 PUSH1 0x20 SWAP1 DUP2 MSTORE PUSH1 0x40 DUP1 DUP4 KECCAK256 DUP1 SLOAD PUSH8 0xFFFFFFFFFFFFFFFF NOT DUP1 DUP3 AND PUSH8 0xFFFFFFFFFFFFFFFF SWAP3 DUP4 AND PUSH1 0x0 NOT ADD DUP4 AND OR SWAP1 SWAP3 SSTORE DUP10 DUP7 AND DUP1 DUP7 MSTORE DUP4 DUP7 KECCAK256 DUP1 SLOAD SWAP4 DUP5 AND SWAP4 DUP4 AND PUSH1 0x1 SWAP1 DUP2 ADD DUP5 AND SWAP5 SWAP1 SWAP5 OR SWAP1 SSTORE DUP10 DUP7 MSTORE PUSH1 0x4 SWAP1 SWAP5 MSTORE DUP3 DUP6 KECCAK256 DUP1 SLOAD PUSH1 0x1 PUSH1 0x1 PUSH1 0xE0 SHL SUB NOT AND SWAP1 SWAP5 OR PUSH1 0x1 PUSH1 0xA0 SHL TIMESTAMP SWAP1 SWAP3 AND SWAP2 SWAP1 SWAP2 MUL OR DUP4 SSTORE DUP8 ADD DUP1 DUP5 MSTORE SWAP3 KECCAK256 DUP1 SLOAD SWAP2 SWAP4 SWAP1 SWAP2 AND PUSH2 0x1A42 JUMPI PUSH1 0x0 SLOAD DUP3 EQ PUSH2 0x1A42 JUMPI DUP1 SLOAD PUSH1 0x20 DUP7 ADD MLOAD PUSH8 0xFFFFFFFFFFFFFFFF AND PUSH1 0x1 PUSH1 0xA0 SHL MUL PUSH1 0x1 PUSH1 0x1 PUSH1 0xE0 SHL SUB NOT SWAP1 SWAP2 AND PUSH1 0x1 PUSH1 0x1 PUSH1 0xA0 SHL SUB DUP11 AND OR OR DUP2 SSTORE JUMPDEST POP POP POP DUP3 DUP5 PUSH1 0x1 PUSH1 0x1 PUSH1 0xA0 SHL SUB AND DUP7 PUSH1 0x1 PUSH1 0x1 PUSH1 0xA0 SHL SUB AND PUSH32 0xDDF252AD1BE2C89B69C2B068FC378DAA952BA7F163C4A11628F55A4DF523B3EF PUSH1 0x40 MLOAD PUSH1 0x40 MLOAD DUP1 SWAP2 SUB SWAP1 LOG4 JUMPDEST POP POP POP POP POP JUMP JUMPDEST PUSH2 0xA7B DUP3 DUP3 PUSH1 0x40 MLOAD DUP1 PUSH1 0x20 ADD PUSH1 0x40 MSTORE DUP1 PUSH1 0x0 DUP2 MSTORE POP PUSH2 0x1E31 JUMP JUMPDEST PUSH1 0x40 DUP1 MLOAD PUSH1 0x60 DUP2 ADD DUP3 MSTORE PUSH1 0x0 DUP1 DUP3 MSTORE PUSH1 0x20 DUP3 ADD DUP2 SWAP1 MSTORE SWAP2 DUP2 ADD SWAP2 SWAP1 SWAP2 MSTORE DUP2 PUSH1 0x0 SLOAD DUP2 LT ISZERO PUSH2 0x1BAB JUMPI PUSH1 0x0 DUP2 DUP2 MSTORE PUSH1 0x4 PUSH1 0x20 SWAP1 DUP2 MSTORE PUSH1 0x40 SWAP2 DUP3 SWAP1 KECCAK256 DUP3 MLOAD PUSH1 0x60 DUP2 ADD DUP5 MSTORE SWAP1 SLOAD PUSH1 0x1 PUSH1 0x1 PUSH1 0xA0 SHL SUB DUP2 AND DUP3 MSTORE PUSH1 0x1 PUSH1 0xA0 SHL DUP2 DIV PUSH8 0xFFFFFFFFFFFFFFFF AND SWAP3 DUP3 ADD SWAP3 SWAP1 SWAP3 MSTORE PUSH1 0x1 PUSH1 0xE0 SHL SWAP1 SWAP2 DIV PUSH1 0xFF AND ISZERO ISZERO SWAP2 DUP2 ADD DUP3 SWAP1 MSTORE SWAP1 PUSH2 0x1BA9 JUMPI DUP1 MLOAD PUSH1 0x1 PUSH1 0x1 PUSH1 0xA0 SHL SUB AND ISZERO PUSH2 0x1B3F JUMPI SWAP4 SWAP3 POP POP POP JUMP JUMPDEST POP PUSH1 0x0 NOT ADD PUSH1 0x0 DUP2 DUP2 MSTORE PUSH1 0x4 PUSH1 0x20 SWAP1 DUP2 MSTORE PUSH1 0x40 SWAP2 DUP3 SWAP1 KECCAK256 DUP3 MLOAD PUSH1 0x60 DUP2 ADD DUP5 MSTORE SWAP1 SLOAD PUSH1 0x1 PUSH1 0x1 PUSH1 0xA0 SHL SUB DUP2 AND DUP1 DUP4 MSTORE PUSH1 0x1 PUSH1 0xA0 SHL DUP3 DIV PUSH8 0xFFFFFFFFFFFFFFFF AND SWAP4 DUP4 ADD SWAP4 SWAP1 SWAP4 MSTORE PUSH1 0x1 PUSH1 0xE0 SHL SWAP1 DIV PUSH1 0xFF AND ISZERO ISZERO SWAP3 DUP2 ADD SWAP3 SWAP1 SWAP3 MSTORE ISZERO PUSH2 0x1BA4 JUMPI SWAP4 SWAP3 POP POP POP JUMP JUMPDEST PUSH2 0x1B3F JUMP JUMPDEST POP JUMPDEST PUSH1 0x40 MLOAD PUSH4 0x6F96CDA1 PUSH1 0xE1 SHL DUP2 MSTORE PUSH1 0x4 ADD PUSH1 0x40 MLOAD DUP1 SWAP2 SUB SWAP1 REVERT JUMPDEST PUSH1 0x8 DUP1 SLOAD PUSH1 0x1 PUSH1 0x1 PUSH1 0xA0 SHL SUB DUP4 DUP2 AND PUSH1 0x1 PUSH1 0x1 PUSH1 0xA0 SHL SUB NOT DUP4 AND DUP2 OR SWAP1 SWAP4 SSTORE PUSH1 0x40 MLOAD SWAP2 AND SWAP2 SWAP1 DUP3 SWAP1 PUSH32 0x8BE0079C531659141344CD1FD0A4F28419497F9722A3DAAFE3B4186F6B6457E0 SWAP1 PUSH1 0x0 SWAP1 LOG3 POP POP JUMP JUMPDEST PUSH1 0x40 MLOAD PUSH4 0xA85BD01 PUSH1 0xE1 SHL DUP2 MSTORE PUSH1 0x0 SWAP1 PUSH1 0x1 PUSH1 0x1 PUSH1 0xA0 SHL SUB DUP6 AND SWAP1 PUSH4 0x150B7A02 SWAP1 PUSH2 0x1C4B SWAP1 CALLER SWAP1 DUP10 SWAP1 DUP9 SWAP1 DUP9 SWAP1 PUSH1 0x4 ADD PUSH2 0x257D JUMP JUMPDEST PUSH1 0x20 PUSH1 0x40 MLOAD DUP1 DUP4 SUB DUP2 PUSH1 0x0 DUP8 DUP1 EXTCODESIZE ISZERO DUP1 ISZERO PUSH2 0x1C65 JUMPI PUSH1 0x0 DUP1 REVERT JUMPDEST POP GAS CALL SWAP3 POP POP POP DUP1 ISZERO PUSH2 0x1C95 JUMPI POP PUSH1 0x40 DUP1 MLOAD PUSH1 0x1F RETURNDATASIZE SWAP1 DUP2 ADD PUSH1 0x1F NOT AND DUP3 ADD SWAP1 SWAP3 MSTORE PUSH2 0x1C92 SWAP2 DUP2 ADD SWAP1 PUSH2 0x234B JUMP JUMPDEST PUSH1 0x1 JUMPDEST PUSH2 0x1CF0 JUMPI RETURNDATASIZE DUP1 DUP1 ISZERO PUSH2 0x1CC3 JUMPI PUSH1 0x40 MLOAD SWAP2 POP PUSH1 0x1F NOT PUSH1 0x3F RETURNDATASIZE ADD AND DUP3 ADD PUSH1 0x40 MSTORE RETURNDATASIZE DUP3 MSTORE RETURNDATASIZE PUSH1 0x0 PUSH1 0x20 DUP5 ADD RETURNDATACOPY PUSH2 0x1CC8 JUMP JUMPDEST PUSH1 0x60 SWAP2 POP JUMPDEST POP DUP1 MLOAD PUSH2 0x1CE8 JUMPI PUSH1 0x40 MLOAD PUSH4 0x68D2BF6B PUSH1 0xE1 SHL DUP2 MSTORE PUSH1 0x4 ADD PUSH1 0x40 MLOAD DUP1 SWAP2 SUB SWAP1 REVERT JUMPDEST DUP1 MLOAD DUP2 PUSH1 0x20 ADD REVERT JUMPDEST PUSH1 0x1 PUSH1 0x1 PUSH1 0xE0 SHL SUB NOT AND PUSH4 0xA85BD01 PUSH1 0xE1 SHL EQ SWAP1 POP JUMPDEST SWAP5 SWAP4 POP POP POP POP JUMP JUMPDEST PUSH1 0x0 DUP3 PUSH2 0x1D1B DUP6 DUP5 PUSH2 0x1E3E JUMP JUMPDEST EQ SWAP5 SWAP4 POP POP POP POP JUMP JUMPDEST PUSH1 0x60 PUSH1 0x9 DUP1 SLOAD PUSH2 0x8E0 SWAP1 PUSH2 0x278B JUMP JUMPDEST PUSH1 0x60 DUP2 PUSH2 0x1D57 JUMPI POP POP PUSH1 0x40 DUP1 MLOAD DUP1 DUP3 ADD SWAP1 SWAP2 MSTORE PUSH1 0x1 DUP2 MSTORE PUSH1 0x3 PUSH1 0xFC SHL PUSH1 0x20 DUP3 ADD MSTORE SWAP1 JUMP JUMPDEST DUP2 PUSH1 0x0 JUMPDEST DUP2 ISZERO PUSH2 0x1D81 JUMPI DUP1 PUSH2 0x1D6B DUP2 PUSH2 0x27C6 JUMP JUMPDEST SWAP2 POP PUSH2 0x1D7A SWAP1 POP PUSH1 0xA DUP4 PUSH2 0x2715 JUMP JUMPDEST SWAP2 POP PUSH2 0x1D5B JUMP JUMPDEST PUSH1 0x0 DUP2 PUSH8 0xFFFFFFFFFFFFFFFF DUP2 GT ISZERO PUSH2 0x1D9C JUMPI PUSH2 0x1D9C PUSH2 0x2837 JUMP JUMPDEST PUSH1 0x40 MLOAD SWAP1 DUP1 DUP3 MSTORE DUP1 PUSH1 0x1F ADD PUSH1 0x1F NOT AND PUSH1 0x20 ADD DUP3 ADD PUSH1 0x40 MSTORE DUP1 ISZERO PUSH2 0x1DC6 JUMPI PUSH1 0x20 DUP3 ADD DUP2 DUP1 CALLDATASIZE DUP4 CALLDATACOPY ADD SWAP1 POP JUMPDEST POP SWAP1 POP JUMPDEST DUP5 ISZERO PUSH2 0x1D06 JUMPI PUSH2 0x1DDB PUSH1 0x1 DUP4 PUSH2 0x2748 JUMP JUMPDEST SWAP2 POP PUSH2 0x1DE8 PUSH1 0xA DUP7 PUSH2 0x27E1 JUMP JUMPDEST PUSH2 0x1DF3 SWAP1 PUSH1 0x30 PUSH2 0x26FD JUMP JUMPDEST PUSH1 0xF8 SHL DUP2 DUP4 DUP2 MLOAD DUP2 LT PUSH2 0x1E08 JUMPI PUSH2 0x1E08 PUSH2 0x2821 JUMP JUMPDEST PUSH1 0x20 ADD ADD SWAP1 PUSH1 0x1 PUSH1 0x1 PUSH1 0xF8 SHL SUB NOT AND SWAP1 DUP2 PUSH1 0x0 BYTE SWAP1 MSTORE8 POP PUSH2 0x1E2A PUSH1 0xA DUP7 PUSH2 0x2715 JUMP JUMPDEST SWAP5 POP PUSH2 0x1DCA JUMP JUMPDEST PUSH2 0xA30 DUP4 DUP4 DUP4 PUSH1 0x1 PUSH2 0x1EB2 JUMP JUMPDEST PUSH1 0x0 DUP2 DUP2 JUMPDEST DUP5 MLOAD DUP2 LT ISZERO PUSH2 0x1EAA JUMPI PUSH1 0x0 DUP6 DUP3 DUP2 MLOAD DUP2 LT PUSH2 0x1E60 JUMPI PUSH2 0x1E60 PUSH2 0x2821 JUMP JUMPDEST PUSH1 0x20 MUL PUSH1 0x20 ADD ADD MLOAD SWAP1 POP DUP1 DUP4 GT PUSH2 0x1E86 JUMPI PUSH1 0x0 DUP4 DUP2 MSTORE PUSH1 0x20 DUP3 SWAP1 MSTORE PUSH1 0x40 SWAP1 KECCAK256 SWAP3 POP PUSH2 0x1E97 JUMP JUMPDEST PUSH1 0x0 DUP2 DUP2 MSTORE PUSH1 0x20 DUP5 SWAP1 MSTORE PUSH1 0x40 SWAP1 KECCAK256 SWAP3 POP JUMPDEST POP DUP1 PUSH2 0x1EA2 DUP2 PUSH2 0x27C6 JUMP JUMPDEST SWAP2 POP POP PUSH2 0x1E43 JUMP JUMPDEST POP SWAP4 SWAP3 POP POP POP JUMP JUMPDEST PUSH1 0x0 SLOAD PUSH1 0x1 PUSH1 0x1 PUSH1 0xA0 SHL SUB DUP6 AND PUSH2 0x1EDB JUMPI PUSH1 0x40 MLOAD PUSH3 0x2E0763 PUSH1 0xE8 SHL DUP2 MSTORE PUSH1 0x4 ADD PUSH1 0x40 MLOAD DUP1 SWAP2 SUB SWAP1 REVERT JUMPDEST DUP4 PUSH2 0x1EF9 JUMPI PUSH1 0x40 MLOAD PUSH4 0xB562E8DD PUSH1 0xE0 SHL DUP2 MSTORE PUSH1 0x4 ADD PUSH1 0x40 MLOAD DUP1 SWAP2 SUB SWAP1 REVERT JUMPDEST PUSH1 0x1 PUSH1 0x1 PUSH1 0xA0 SHL SUB DUP6 AND PUSH1 0x0 DUP2 DUP2 MSTORE PUSH1 0x5 PUSH1 0x20 SWAP1 DUP2 MSTORE PUSH1 0x40 DUP1 DUP4 KECCAK256 DUP1 SLOAD PUSH16 0xFFFFFFFFFFFFFFFFFFFFFFFFFFFFFFFF NOT DUP2 AND PUSH8 0xFFFFFFFFFFFFFFFF DUP1 DUP4 AND DUP13 ADD DUP2 AND SWAP2 DUP3 OR PUSH9 0x10000000000000000 PUSH8 0xFFFFFFFFFFFFFFFF NOT SWAP1 SWAP5 AND SWAP1 SWAP3 OR DUP4 SWAP1 DIV DUP2 AND DUP13 ADD DUP2 AND SWAP1 SWAP3 MUL OR SWAP1 SWAP2 SSTORE DUP6 DUP5 MSTORE PUSH1 0x4 SWAP1 SWAP3 MSTORE SWAP1 SWAP2 KECCAK256 DUP1 SLOAD PUSH1 0x1 PUSH1 0x1 PUSH1 0xE0 SHL SUB NOT AND SWAP1 SWAP3 OR PUSH1 0x1 PUSH1 0xA0 SHL TIMESTAMP SWAP1 SWAP3 AND SWAP2 SWAP1 SWAP2 MUL OR SWAP1 SSTORE DUP1 DUP1 DUP6 ADD DUP4 DUP1 ISZERO PUSH2 0x1FAB JUMPI POP PUSH1 0x1 PUSH1 0x1 PUSH1 0xA0 SHL SUB DUP8 AND EXTCODESIZE ISZERO ISZERO JUMPDEST ISZERO PUSH2 0x2034 JUMPI JUMPDEST PUSH1 0x40 MLOAD DUP3 SWAP1 PUSH1 0x1 PUSH1 0x1 PUSH1 0xA0 SHL SUB DUP10 AND SWAP1 PUSH1 0x0 SWAP1 PUSH32 0xDDF252AD1BE2C89B69C2B068FC378DAA952BA7F163C4A11628F55A4DF523B3EF SWAP1 DUP3 SWAP1 LOG4 PUSH2 0x1FFC PUSH1 0x0 DUP9 DUP5 DUP1 PUSH1 0x1 ADD SWAP6 POP DUP9 PUSH2 0x1C16 JUMP JUMPDEST PUSH2 0x2019 JUMPI PUSH1 0x40 MLOAD PUSH4 0x68D2BF6B PUSH1 0xE1 SHL DUP2 MSTORE PUSH1 0x4 ADD PUSH1 0x40 MLOAD DUP1 SWAP2 SUB SWAP1 REVERT JUMPDEST DUP1 DUP3 EQ ISZERO PUSH2 0x1FB1 JUMPI DUP3 PUSH1 0x0 SLOAD EQ PUSH2 0x202F JUMPI PUSH1 0x0 DUP1 REVERT JUMPDEST PUSH2 0x207A JUMP JUMPDEST JUMPDEST PUSH1 0x40 MLOAD PUSH1 0x1 DUP4 ADD SWAP3 SWAP1 PUSH1 0x1 PUSH1 0x1 PUSH1 0xA0 SHL SUB DUP10 AND SWAP1 PUSH1 0x0 SWAP1 PUSH32 0xDDF252AD1BE2C89B69C2B068FC378DAA952BA7F163C4A11628F55A4DF523B3EF SWAP1 DUP3 SWAP1 LOG4 DUP1 DUP3 EQ ISZERO PUSH2 0x2035 JUMPI JUMPDEST POP PUSH1 0x0 SSTORE PUSH2 0x1A87 JUMP JUMPDEST DUP3 DUP1 SLOAD PUSH2 0x208F SWAP1 PUSH2 0x278B JUMP JUMPDEST SWAP1 PUSH1 0x0 MSTORE PUSH1 0x20 PUSH1 0x0 KECCAK256 SWAP1 PUSH1 0x1F ADD PUSH1 0x20 SWAP1 DIV DUP2 ADD SWAP3 DUP3 PUSH2 0x20B1 JUMPI PUSH1 0x0 DUP6 SSTORE PUSH2 0x20F7 JUMP JUMPDEST DUP3 PUSH1 0x1F LT PUSH2 0x20CA JUMPI DUP1 MLOAD PUSH1 0xFF NOT AND DUP4 DUP1 ADD OR DUP6 SSTORE PUSH2 0x20F7 JUMP JUMPDEST DUP3 DUP1 ADD PUSH1 0x1 ADD DUP6 SSTORE DUP3 ISZERO PUSH2 0x20F7 JUMPI SWAP2 DUP3 ADD JUMPDEST DUP3 DUP2 GT ISZERO PUSH2 0x20F7 JUMPI DUP3 MLOAD DUP3 SSTORE SWAP2 PUSH1 0x20 ADD SWAP2 SWAP1 PUSH1 0x1 ADD SWAP1 PUSH2 0x20DC JUMP JUMPDEST POP PUSH2 0x2103 SWAP3 SWAP2 POP PUSH2 0x2107 JUMP JUMPDEST POP SWAP1 JUMP JUMPDEST JUMPDEST DUP1 DUP3 GT ISZERO PUSH2 0x2103 JUMPI PUSH1 0x0 DUP2 SSTORE PUSH1 0x1 ADD PUSH2 0x2108 JUMP JUMPDEST PUSH1 0x0 PUSH8 0xFFFFFFFFFFFFFFFF DUP4 GT ISZERO PUSH2 0x2136 JUMPI PUSH2 0x2136 PUSH2 0x2837 JUMP JUMPDEST PUSH2 0x2149 PUSH1 0x1F DUP5 ADD PUSH1 0x1F NOT AND PUSH1 0x20 ADD PUSH2 0x26CC JUMP JUMPDEST SWAP1 POP DUP3 DUP2 MSTORE DUP4 DUP4 DUP4 ADD GT ISZERO PUSH2 0x215D JUMPI PUSH1 0x0 DUP1 REVERT JUMPDEST DUP3 DUP3 PUSH1 0x20 DUP4 ADD CALLDATACOPY PUSH1 0x0 PUSH1 0x20 DUP5 DUP4 ADD ADD MSTORE SWAP4 SWAP3 POP POP POP JUMP JUMPDEST DUP1 CALLDATALOAD PUSH1 0x1 PUSH1 0x1 PUSH1 0xA0 SHL SUB DUP2 AND DUP2 EQ PUSH2 0x218B JUMPI PUSH1 0x0 DUP1 REVERT JUMPDEST SWAP2 SWAP1 POP JUMP JUMPDEST DUP1 CALLDATALOAD DUP1 ISZERO ISZERO DUP2 EQ PUSH2 0x218B JUMPI PUSH1 0x0 DUP1 REVERT JUMPDEST PUSH1 0x0 PUSH1 0x20 DUP3 DUP5 SUB SLT ISZERO PUSH2 0x21B2 JUMPI PUSH1 0x0 DUP1 REVERT JUMPDEST PUSH2 0x14BF DUP3 PUSH2 0x2174 JUMP JUMPDEST PUSH1 0x0 DUP1 PUSH1 0x40 DUP4 DUP6 SUB SLT ISZERO PUSH2 0x21CE JUMPI PUSH1 0x0 DUP1 REVERT JUMPDEST PUSH2 0x21D7 DUP4 PUSH2 0x2174 JUMP JUMPDEST SWAP2 POP PUSH2 0x21E5 PUSH1 0x20 DUP5 ADD PUSH2 0x2174 JUMP JUMPDEST SWAP1 POP SWAP3 POP SWAP3 SWAP1 POP JUMP JUMPDEST PUSH1 0x0 DUP1 PUSH1 0x0 PUSH1 0x60 DUP5 DUP7 SUB SLT ISZERO PUSH2 0x2203 JUMPI PUSH1 0x0 DUP1 REVERT JUMPDEST PUSH2 0x220C DUP5 PUSH2 0x2174 JUMP JUMPDEST SWAP3 POP PUSH2 0x221A PUSH1 0x20 DUP6 ADD PUSH2 0x2174 JUMP JUMPDEST SWAP2 POP PUSH1 0x40 DUP5 ADD CALLDATALOAD SWAP1 POP SWAP3 POP SWAP3 POP SWAP3 JUMP JUMPDEST PUSH1 0x0 DUP1 PUSH1 0x0 DUP1 PUSH1 0x80 DUP6 DUP8 SUB SLT ISZERO PUSH2 0x2240 JUMPI PUSH1 0x0 DUP1 REVERT JUMPDEST PUSH2 0x2249 DUP6 PUSH2 0x2174 JUMP JUMPDEST SWAP4 POP PUSH2 0x2257 PUSH1 0x20 DUP7 ADD PUSH2 0x2174 JUMP JUMPDEST SWAP3 POP PUSH1 0x40 DUP6 ADD CALLDATALOAD SWAP2 POP PUSH1 0x60 DUP6 ADD CALLDATALOAD PUSH8 0xFFFFFFFFFFFFFFFF DUP2 GT ISZERO PUSH2 0x227A JUMPI PUSH1 0x0 DUP1 REVERT JUMPDEST DUP6 ADD PUSH1 0x1F DUP2 ADD DUP8 SGT PUSH2 0x228B JUMPI PUSH1 0x0 DUP1 REVERT JUMPDEST PUSH2 0x229A DUP8 DUP3 CALLDATALOAD PUSH1 0x20 DUP5 ADD PUSH2 0x211C JUMP JUMPDEST SWAP2 POP POP SWAP3 SWAP6 SWAP2 SWAP5 POP SWAP3 POP JUMP JUMPDEST PUSH1 0x0 DUP1 PUSH1 0x40 DUP4 DUP6 SUB SLT ISZERO PUSH2 0x22B9 JUMPI PUSH1 0x0 DUP1 REVERT JUMPDEST PUSH2 0x22C2 DUP4 PUSH2 0x2174 JUMP JUMPDEST SWAP2 POP PUSH2 0x21E5 PUSH1 0x20 DUP5 ADD PUSH2 0x2190 JUMP JUMPDEST PUSH1 0x0 DUP1 PUSH1 0x40 DUP4 DUP6 SUB SLT ISZERO PUSH2 0x22E3 JUMPI PUSH1 0x0 DUP1 REVERT JUMPDEST PUSH2 0x22EC DUP4 PUSH2 0x2174 JUMP JUMPDEST SWAP5 PUSH1 0x20 SWAP4 SWAP1 SWAP4 ADD CALLDATALOAD SWAP4 POP POP POP JUMP JUMPDEST PUSH1 0x0 PUSH1 0x20 DUP3 DUP5 SUB SLT ISZERO PUSH2 0x230C JUMPI PUSH1 0x0 DUP1 REVERT JUMPDEST PUSH2 0x14BF DUP3 PUSH2 0x2190 JUMP JUMPDEST PUSH1 0x0 PUSH1 0x20 DUP3 DUP5 SUB SLT ISZERO PUSH2 0x2327 JUMPI PUSH1 0x0 DUP1 REVERT JUMPDEST POP CALLDATALOAD SWAP2 SWAP1 POP JUMP JUMPDEST PUSH1 0x0 PUSH1 0x20 DUP3 DUP5 SUB SLT ISZERO PUSH2 0x2340 JUMPI PUSH1 0x0 DUP1 REVERT JUMPDEST DUP2 CALLDATALOAD PUSH2 0x14BF DUP2 PUSH2 0x284D JUMP JUMPDEST PUSH1 0x0 PUSH1 0x20 DUP3 DUP5 SUB SLT ISZERO PUSH2 0x235D JUMPI PUSH1 0x0 DUP1 REVERT JUMPDEST DUP2 MLOAD PUSH2 0x14BF DUP2 PUSH2 0x284D JUMP JUMPDEST PUSH1 0x0 PUSH1 0x20 DUP3 DUP5 SUB SLT ISZERO PUSH2 0x237A JUMPI PUSH1 0x0 DUP1 REVERT JUMPDEST DUP2 CALLDATALOAD PUSH8 0xFFFFFFFFFFFFFFFF DUP2 GT ISZERO PUSH2 0x2391 JUMPI PUSH1 0x0 DUP1 REVERT JUMPDEST DUP3 ADD PUSH1 0x1F DUP2 ADD DUP5 SGT PUSH2 0x23A2 JUMPI PUSH1 0x0 DUP1 REVERT JUMPDEST PUSH2 0x1D06 DUP5 DUP3 CALLDATALOAD PUSH1 0x20 DUP5 ADD PUSH2 0x211C JUMP JUMPDEST PUSH1 0x0 DUP1 PUSH1 0x40 DUP4 DUP6 SUB SLT ISZERO PUSH2 0x23C4 JUMPI PUSH1 0x0 DUP1 REVERT JUMPDEST DUP3 CALLDATALOAD SWAP2 POP PUSH2 0x21E5 PUSH1 0x20 DUP5 ADD PUSH2 0x2174 JUMP JUMPDEST PUSH1 0x0 DUP1 PUSH1 0x40 DUP4 DUP6 SUB SLT ISZERO PUSH2 0x23E7 JUMPI PUSH1 0x0 DUP1 REVERT JUMPDEST DUP3 CALLDATALOAD SWAP2 POP PUSH1 0x20 DUP1 DUP5 ADD CALLDATALOAD PUSH8 0xFFFFFFFFFFFFFFFF DUP1 DUP3 GT ISZERO PUSH2 0x2407 JUMPI PUSH1 0x0 DUP1 REVERT JUMPDEST DUP2 DUP7 ADD SWAP2 POP DUP7 PUSH1 0x1F DUP4 ADD SLT PUSH2 0x241B JUMPI PUSH1 0x0 DUP1 REVERT JUMPDEST DUP2 CALLDATALOAD DUP2 DUP2 GT ISZERO PUSH2 0x242D JUMPI PUSH2 0x242D PUSH2 0x2837 JUMP JUMPDEST DUP1 PUSH1 0x5 SHL SWAP2 POP PUSH2 0x243E DUP5 DUP4 ADD PUSH2 0x26CC JUMP JUMPDEST DUP2 DUP2 MSTORE DUP5 DUP2 ADD SWAP1 DUP5 DUP7 ADD DUP5 DUP7 ADD DUP8 ADD DUP12 LT ISZERO PUSH2 0x2459 JUMPI PUSH1 0x0 DUP1 REVERT JUMPDEST PUSH1 0x0 SWAP6 POP JUMPDEST DUP4 DUP7 LT ISZERO PUSH2 0x247C JUMPI DUP1 CALLDATALOAD DUP4 MSTORE PUSH1 0x1 SWAP6 SWAP1 SWAP6 ADD SWAP5 SWAP2 DUP7 ADD SWAP2 DUP7 ADD PUSH2 0x245E JUMP JUMPDEST POP DUP1 SWAP7 POP POP POP POP POP POP POP SWAP3 POP SWAP3 SWAP1 POP JUMP JUMPDEST PUSH1 0x0 DUP2 MLOAD DUP1 DUP5 MSTORE PUSH2 0x24A5 DUP2 PUSH1 0x20 DUP7 ADD PUSH1 0x20 DUP7 ADD PUSH2 0x275F JUMP JUMPDEST PUSH1 0x1F ADD PUSH1 0x1F NOT AND SWAP3 SWAP1 SWAP3 ADD PUSH1 0x20 ADD SWAP3 SWAP2 POP POP JUMP JUMPDEST PUSH1 0x0 DUP5 MLOAD PUSH1 0x20 PUSH2 0x24CC DUP3 DUP6 DUP4 DUP11 ADD PUSH2 0x275F JUMP JUMPDEST DUP6 MLOAD SWAP2 DUP5 ADD SWAP2 PUSH2 0x24DF DUP2 DUP5 DUP5 DUP11 ADD PUSH2 0x275F JUMP JUMPDEST DUP6 SLOAD SWAP3 ADD SWAP2 PUSH1 0x0 SWAP1 PUSH1 0x1 DUP2 DUP2 SHR SWAP1 DUP1 DUP4 AND DUP1 PUSH2 0x24FC JUMPI PUSH1 0x7F DUP4 AND SWAP3 POP JUMPDEST DUP6 DUP4 LT DUP2 EQ ISZERO PUSH2 0x251A JUMPI PUSH4 0x4E487B71 PUSH1 0xE0 SHL DUP6 MSTORE PUSH1 0x22 PUSH1 0x4 MSTORE PUSH1 0x24 DUP6 REVERT JUMPDEST DUP1 DUP1 ISZERO PUSH2 0x252E JUMPI PUSH1 0x1 DUP2 EQ PUSH2 0x253F JUMPI PUSH2 0x256C JUMP JUMPDEST PUSH1 0xFF NOT DUP6 AND DUP9 MSTORE DUP4 DUP9 ADD SWAP6 POP PUSH2 0x256C JUMP JUMPDEST PUSH1 0x0 DUP12 DUP2 MSTORE PUSH1 0x20 SWAP1 KECCAK256 PUSH1 0x0 JUMPDEST DUP6 DUP2 LT ISZERO PUSH2 0x2564 JUMPI DUP2 SLOAD DUP11 DUP3 ADD MSTORE SWAP1 DUP5 ADD SWAP1 DUP9 ADD PUSH2 0x254B JUMP JUMPDEST POP POP DUP4 DUP9 ADD SWAP6 POP JUMPDEST POP SWAP4 SWAP12 SWAP11 POP POP POP POP POP POP POP POP POP POP POP JUMP JUMPDEST PUSH1 0x1 PUSH1 0x1 PUSH1 0xA0 SHL SUB DUP6 DUP2 AND DUP3 MSTORE DUP5 AND PUSH1 0x20 DUP3 ADD MSTORE PUSH1 0x40 DUP2 ADD DUP4 SWAP1 MSTORE PUSH1 0x80 PUSH1 0x60 DUP3 ADD DUP2 SWAP1 MSTORE PUSH1 0x0 SWAP1 PUSH2 0x25B0 SWAP1 DUP4 ADD DUP5 PUSH2 0x248D JUMP JUMPDEST SWAP7 SWAP6 POP POP POP POP POP POP JUMP JUMPDEST PUSH1 0x20 DUP2 MSTORE PUSH1 0x0 PUSH2 0x14BF PUSH1 0x20 DUP4 ADD DUP5 PUSH2 0x248D JUMP JUMPDEST PUSH1 0x20 DUP1 DUP3 MSTORE PUSH1 0x14 SWAP1 DUP3 ADD MSTORE PUSH20 0x496E76616C6964206D696E7420616D6F756E7421 PUSH1 0x60 SHL PUSH1 0x40 DUP3 ADD MSTORE PUSH1 0x60 ADD SWAP1 JUMP JUMPDEST PUSH1 0x20 DUP1 DUP3 MSTORE PUSH1 0x1E SWAP1 DUP3 ADD MSTORE PUSH32 0x5468652063616C6C657220697320616E6F7468657220636F6E74726163740000 PUSH1 0x40 DUP3 ADD MSTORE PUSH1 0x60 ADD SWAP1 JUMP JUMPDEST PUSH1 0x20 DUP1 DUP3 MSTORE DUP2 DUP2 ADD MSTORE PUSH32 0x4F776E61626C653A2063616C6C6572206973206E6F7420746865206F776E6572 PUSH1 0x40 DUP3 ADD MSTORE PUSH1 0x60 ADD SWAP1 JUMP JUMPDEST PUSH1 0x20 DUP1 DUP3 MSTORE PUSH1 0x17 SWAP1 DUP3 ADD MSTORE PUSH32 0x54686520636F6E74726163742069732070617573656421000000000000000000 PUSH1 0x40 DUP3 ADD MSTORE PUSH1 0x60 ADD SWAP1 JUMP JUMPDEST PUSH1 0x20 DUP1 DUP3 MSTORE PUSH1 0x14 SWAP1 DUP3 ADD MSTORE PUSH20 0x4D617820737570706C7920657863656564656421 PUSH1 0x60 SHL PUSH1 0x40 DUP3 ADD MSTORE PUSH1 0x60 ADD SWAP1 JUMP JUMPDEST PUSH1 0x40 MLOAD PUSH1 0x1F DUP3 ADD PUSH1 0x1F NOT AND DUP2 ADD PUSH8 0xFFFFFFFFFFFFFFFF DUP2 GT DUP3 DUP3 LT OR ISZERO PUSH2 0x26F5 JUMPI PUSH2 0x26F5 PUSH2 0x2837 JUMP JUMPDEST PUSH1 0x40 MSTORE SWAP2 SWAP1 POP JUMP JUMPDEST PUSH1 0x0 DUP3 NOT DUP3 GT ISZERO PUSH2 0x2710 JUMPI PUSH2 0x2710 PUSH2 0x27F5 JUMP JUMPDEST POP ADD SWAP1 JUMP JUMPDEST PUSH1 0x0 DUP3 PUSH2 0x2724 JUMPI PUSH2 0x2724 PUSH2 0x280B JUMP JUMPDEST POP DIV SWAP1 JUMP JUMPDEST PUSH1 0x0 DUP2 PUSH1 0x0 NOT DIV DUP4 GT DUP3 ISZERO ISZERO AND ISZERO PUSH2 0x2743 JUMPI PUSH2 0x2743 PUSH2 0x27F5 JUMP JUMPDEST POP MUL SWAP1 JUMP JUMPDEST PUSH1 0x0 DUP3 DUP3 LT ISZERO PUSH2 0x275A JUMPI PUSH2 0x275A PUSH2 0x27F5 JUMP JUMPDEST POP SUB SWAP1 JUMP JUMPDEST PUSH1 0x0 JUMPDEST DUP4 DUP2 LT ISZERO PUSH2 0x277A JUMPI DUP2 DUP2 ADD MLOAD DUP4 DUP3 ADD MSTORE PUSH1 0x20 ADD PUSH2 0x2762 JUMP JUMPDEST DUP4 DUP2 GT ISZERO PUSH2 0x10A7 JUMPI POP POP PUSH1 0x0 SWAP2 ADD MSTORE JUMP JUMPDEST PUSH1 0x1 DUP2 DUP2 SHR SWAP1 DUP3 AND DUP1 PUSH2 0x279F JUMPI PUSH1 0x7F DUP3 AND SWAP2 POP JUMPDEST PUSH1 0x20 DUP3 LT DUP2 EQ ISZERO PUSH2 0x27C0 JUMPI PUSH4 0x4E487B71 PUSH1 0xE0 SHL PUSH1 0x0 MSTORE PUSH1 0x22 PUSH1 0x4 MSTORE PUSH1 0x24 PUSH1 0x0 REVERT JUMPDEST POP SWAP2 SWAP1 POP JUMP JUMPDEST PUSH1 0x0 PUSH1 0x0 NOT DUP3 EQ ISZERO PUSH2 0x27DA JUMPI PUSH2 0x27DA PUSH2 0x27F5 JUMP JUMPDEST POP PUSH1 0x1 ADD SWAP1 JUMP JUMPDEST PUSH1 0x0 DUP3 PUSH2 0x27F0 JUMPI PUSH2 0x27F0 PUSH2 0x280B JUMP JUMPDEST POP MOD SWAP1 JUMP JUMPDEST PUSH4 0x4E487B71 PUSH1 0xE0 SHL PUSH1 0x0 MSTORE PUSH1 0x11 PUSH1 0x4 MSTORE PUSH1 0x24 PUSH1 0x0 REVERT JUMPDEST PUSH4 0x4E487B71 PUSH1 0xE0 SHL PUSH1 0x0 MSTORE PUSH1 0x12 PUSH1 0x4 MSTORE PUSH1 0x24 PUSH1 0x0 REVERT JUMPDEST PUSH4 0x4E487B71 PUSH1 0xE0 SHL PUSH1 0x0 MSTORE PUSH1 0x32 PUSH1 0x4 MSTORE PUSH1 0x24 PUSH1 0x0 REVERT JUMPDEST PUSH4 0x4E487B71 PUSH1 0xE0 SHL PUSH1 0x0 MSTORE PUSH1 0x41 PUSH1 0x4 MSTORE PUSH1 0x24 PUSH1 0x0 REVERT JUMPDEST PUSH1 0x1 PUSH1 0x1 PUSH1 0xE0 SHL SUB NOT DUP2 AND DUP2 EQ PUSH2 0xB91 JUMPI PUSH1 0x0 DUP1 REVERT INVALID LOG2 PUSH5 0x6970667358 0x22 SLT KECCAK256 JUMP 0x5C 0xBA 0x4D LOG1 0xA5 0xD5 0xC9 REVERT 0xD6 SIGNEXTEND 0x49 STOP DELEGATECALL 0x28 0x27 SAR MLOAD 0xAD 0xFC PUSH31 0x113551524A44D9627FE44A64736F6C63430008070033697066733A2F2F516D PUSH4 0x4E714B6D 0x4E PUSH11 0x7935776F33744352543361 PUSH17 0x7937427A456F3153794773577275353566 PUSH22 0x445A50636B64362F68696464656E2E6A736F6E000000 "
        },
        "gasEstimates": {
            "creation": {
                "codeDepositCost": "2078600",
                "executionCost": "infinite",
                "totalCost": "infinite"
            },
            "external": {
                "addressMintedBalance(address)": "2631",
                "approve(address,uint256)": "infinite",
                "balanceOf(address)": "2663",
                "costOG()": "2430",
                "costPublic()": "2450",
                "costWL()": "2364",
                "getApproved(uint256)": "6981",
                "hiddenMetadataUri()": "infinite",
                "isApprovedForAll(address,address)": "infinite",
                "maxMintAmountPerTx()": "2451",
                "maxSupply()": "2450",
                "maxSupplyForDevs()": "2385",
                "mintForAddress(uint256,address)": "infinite",
                "mintOG(uint256,bytes32[])": "infinite",
                "mintPublicSale(uint256)": "infinite",
                "mintWL(uint256,bytes32[])": "infinite",
                "name()": "infinite",
                "nftPerAddressLimit()": "2450",
                "nftPerAddressLimitPreSale()": "2341",
                "owner()": "2465",
                "ownerOf(uint256)": "infinite",
                "paused()": "2388",
                "presale()": "2442",
                "renounceOwnership()": "28207",
                "revealed()": "2466",
                "safeTransferFrom(address,address,uint256)": "infinite",
                "safeTransferFrom(address,address,uint256,bytes)": "infinite",
                "setApprovalForAll(address,bool)": "infinite",
                "setCostOG(uint256)": "24530",
                "setCostPublic(uint256)": "24620",
                "setCostWL(uint256)": "24575",
                "setHiddenMetadataUri(string)": "infinite",
                "setMaxMintAmountPerTx(uint256)": "24575",
                "setPaused(bool)": "26737",
                "setPresale(bool)": "26750",
                "setRevealed(bool)": "26772",
                "setRootOg(bytes32)": "24531",
                "setRootWl(bytes32)": "24576",
                "setUriPrefix(string)": "infinite",
                "setUriSuffix(string)": "infinite",
                "supportsInterface(bytes4)": "557",
                "symbol()": "infinite",
                "tokenURI(uint256)": "infinite",
                "totalSupply()": "4488",
                "transferFrom(address,address,uint256)": "infinite",
                "transferOwnership(address)": "28422",
                "uriPrefix()": "infinite",
                "uriSuffix()": "infinite",
                "withdraw()": "infinite"
            },
            "internal": {
                "_baseURI()": "infinite",
                "verify(bytes32,bytes32[] memory)": "infinite"
            }
        },
        "methodIdentifiers": {
            "addressMintedBalance(address)": "18cae269",
            "approve(address,uint256)": "095ea7b3",
            "balanceOf(address)": "70a08231",
            "costOG()": "085ebf77",
            "costPublic()": "63cc1113",
            "costWL()": "06afd592",
            "getApproved(uint256)": "081812fc",
            "hiddenMetadataUri()": "a45ba8e7",
            "isApprovedForAll(address,address)": "e985e9c5",
            "maxMintAmountPerTx()": "94354fd0",
            "maxSupply()": "d5abeb01",
            "maxSupplyForDevs()": "43a55222",
            "mintForAddress(uint256,address)": "efbd73f4",
            "mintOG(uint256,bytes32[])": "bd2f92a1",
            "mintPublicSale(uint256)": "5a5e5d58",
            "mintWL(uint256,bytes32[])": "d0bfb810",
            "name()": "06fdde03",
            "nftPerAddressLimit()": "ba7d2c76",
            "nftPerAddressLimitPreSale()": "6a37a20f",
            "owner()": "8da5cb5b",
            "ownerOf(uint256)": "6352211e",
            "paused()": "5c975abb",
            "presale()": "fdea8e0b",
            "renounceOwnership()": "715018a6",
            "revealed()": "51830227",
            "safeTransferFrom(address,address,uint256)": "42842e0e",
            "safeTransferFrom(address,address,uint256,bytes)": "b88d4fde",
            "setApprovalForAll(address,bool)": "a22cb465",
            "setCostOG(uint256)": "efb8a893",
            "setCostPublic(uint256)": "2f9a7c58",
            "setCostWL(uint256)": "ced2053b",
            "setHiddenMetadataUri(string)": "4fdd43cb",
            "setMaxMintAmountPerTx(uint256)": "b071401b",
            "setPaused(bool)": "16c38b3c",
            "setPresale(bool)": "c54e73e3",
            "setRevealed(bool)": "e0a80853",
            "setRootOg(bytes32)": "dfa434b2",
            "setRootWl(bytes32)": "45eefa37",
            "setUriPrefix(string)": "7ec4a659",
            "setUriSuffix(string)": "16ba10e0",
            "supportsInterface(bytes4)": "01ffc9a7",
            "symbol()": "95d89b41",
            "tokenURI(uint256)": "c87b56dd",
            "totalSupply()": "18160ddd",
            "transferFrom(address,address,uint256)": "23b872dd",
            "transferOwnership(address)": "f2fde38b",
            "uriPrefix()": "62b99ad4",
            "uriSuffix()": "5503a0e8",
            "withdraw()": "3ccfd60b"
        }
    },
    "abi": [
        {
            "inputs": [],
            "stateMutability": "nonpayable",
            "type": "constructor"
        },
        {
            "inputs": [],
            "name": "ApprovalCallerNotOwnerNorApproved",
            "type": "error"
        },
        {
            "inputs": [],
            "name": "ApprovalQueryForNonexistentToken",
            "type": "error"
        },
        {
            "inputs": [],
            "name": "ApprovalToCurrentOwner",
            "type": "error"
        },
        {
            "inputs": [],
            "name": "ApproveToCaller",
            "type": "error"
        },
        {
            "inputs": [],
            "name": "BalanceQueryForZeroAddress",
            "type": "error"
        },
        {
            "inputs": [],
            "name": "MintToZeroAddress",
            "type": "error"
        },
        {
            "inputs": [],
            "name": "MintZeroQuantity",
            "type": "error"
        },
        {
            "inputs": [],
            "name": "OwnerQueryForNonexistentToken",
            "type": "error"
        },
        {
            "inputs": [],
            "name": "TransferCallerNotOwnerNorApproved",
            "type": "error"
        },
        {
            "inputs": [],
            "name": "TransferFromIncorrectOwner",
            "type": "error"
        },
        {
            "inputs": [],
            "name": "TransferToNonERC721ReceiverImplementer",
            "type": "error"
        },
        {
            "inputs": [],
            "name": "TransferToZeroAddress",
            "type": "error"
        },
        {
            "anonymous": false,
            "inputs": [
                {
                    "indexed": true,
                    "internalType": "address",
                    "name": "owner",
                    "type": "address"
                },
                {
                    "indexed": true,
                    "internalType": "address",
                    "name": "approved",
                    "type": "address"
                },
                {
                    "indexed": true,
                    "internalType": "uint256",
                    "name": "tokenId",
                    "type": "uint256"
                }
            ],
            "name": "Approval",
            "type": "event"
        },
        {
            "anonymous": false,
            "inputs": [
                {
                    "indexed": true,
                    "internalType": "address",
                    "name": "owner",
                    "type": "address"
                },
                {
                    "indexed": true,
                    "internalType": "address",
                    "name": "operator",
                    "type": "address"
                },
                {
                    "indexed": false,
                    "internalType": "bool",
                    "name": "approved",
                    "type": "bool"
                }
            ],
            "name": "ApprovalForAll",
            "type": "event"
        },
        {
            "anonymous": false,
            "inputs": [
                {
                    "indexed": true,
                    "internalType": "address",
                    "name": "previousOwner",
                    "type": "address"
                },
                {
                    "indexed": true,
                    "internalType": "address",
                    "name": "newOwner",
                    "type": "address"
                }
            ],
            "name": "OwnershipTransferred",
            "type": "event"
        },
        {
            "anonymous": false,
            "inputs": [
                {
                    "indexed": true,
                    "internalType": "address",
                    "name": "from",
                    "type": "address"
                },
                {
                    "indexed": true,
                    "internalType": "address",
                    "name": "to",
                    "type": "address"
                },
                {
                    "indexed": true,
                    "internalType": "uint256",
                    "name": "tokenId",
                    "type": "uint256"
                }
            ],
            "name": "Transfer",
            "type": "event"
        },
        {
            "inputs": [
                {
                    "internalType": "address",
                    "name": "",
                    "type": "address"
                }
            ],
            "name": "addressMintedBalance",
            "outputs": [
                {
                    "internalType": "uint256",
                    "name": "",
                    "type": "uint256"
                }
            ],
            "stateMutability": "view",
            "type": "function"
        },
        {
            "inputs": [
                {
                    "internalType": "address",
                    "name": "to",
                    "type": "address"
                },
                {
                    "internalType": "uint256",
                    "name": "tokenId",
                    "type": "uint256"
                }
            ],
            "name": "approve",
            "outputs": [],
            "stateMutability": "nonpayable",
            "type": "function"
        },
        {
            "inputs": [
                {
                    "internalType": "address",
                    "name": "owner",
                    "type": "address"
                }
            ],
            "name": "balanceOf",
            "outputs": [
                {
                    "internalType": "uint256",
                    "name": "",
                    "type": "uint256"
                }
            ],
            "stateMutability": "view",
            "type": "function"
        },
        {
            "inputs": [],
            "name": "costOG",
            "outputs": [
                {
                    "internalType": "uint256",
                    "name": "",
                    "type": "uint256"
                }
            ],
            "stateMutability": "view",
            "type": "function"
        },
        {
            "inputs": [],
            "name": "costPublic",
            "outputs": [
                {
                    "internalType": "uint256",
                    "name": "",
                    "type": "uint256"
                }
            ],
            "stateMutability": "view",
            "type": "function"
        },
        {
            "inputs": [],
            "name": "costWL",
            "outputs": [
                {
                    "internalType": "uint256",
                    "name": "",
                    "type": "uint256"
                }
            ],
            "stateMutability": "view",
            "type": "function"
        },
        {
            "inputs": [
                {
                    "internalType": "uint256",
                    "name": "tokenId",
                    "type": "uint256"
                }
            ],
            "name": "getApproved",
            "outputs": [
                {
                    "internalType": "address",
                    "name": "",
                    "type": "address"
                }
            ],
            "stateMutability": "view",
            "type": "function"
        },
        {
            "inputs": [],
            "name": "hiddenMetadataUri",
            "outputs": [
                {
                    "internalType": "string",
                    "name": "",
                    "type": "string"
                }
            ],
            "stateMutability": "view",
            "type": "function"
        },
        {
            "inputs": [
                {
                    "internalType": "address",
                    "name": "owner",
                    "type": "address"
                },
                {
                    "internalType": "address",
                    "name": "operator",
                    "type": "address"
                }
            ],
            "name": "isApprovedForAll",
            "outputs": [
                {
                    "internalType": "bool",
                    "name": "",
                    "type": "bool"
                }
            ],
            "stateMutability": "view",
            "type": "function"
        },
        {
            "inputs": [],
            "name": "maxMintAmountPerTx",
            "outputs": [
                {
                    "internalType": "uint256",
                    "name": "",
                    "type": "uint256"
                }
            ],
            "stateMutability": "view",
            "type": "function"
        },
        {
            "inputs": [],
            "name": "maxSupply",
            "outputs": [
                {
                    "internalType": "uint256",
                    "name": "",
                    "type": "uint256"
                }
            ],
            "stateMutability": "view",
            "type": "function"
        },
        {
            "inputs": [],
            "name": "maxSupplyForDevs",
            "outputs": [
                {
                    "internalType": "uint256",
                    "name": "",
                    "type": "uint256"
                }
            ],
            "stateMutability": "view",
            "type": "function"
        },
        {
            "inputs": [
                {
                    "internalType": "uint256",
                    "name": "_mintAmount",
                    "type": "uint256"
                },
                {
                    "internalType": "address",
                    "name": "_receiver",
                    "type": "address"
                }
            ],
            "name": "mintForAddress",
            "outputs": [],
            "stateMutability": "nonpayable",
            "type": "function"
        },
        {
            "inputs": [
                {
                    "internalType": "uint256",
                    "name": "_mintAmount",
                    "type": "uint256"
                },
                {
                    "internalType": "bytes32[]",
                    "name": "proof",
                    "type": "bytes32[]"
                }
            ],
            "name": "mintOG",
            "outputs": [],
            "stateMutability": "payable",
            "type": "function"
        },
        {
            "inputs": [
                {
                    "internalType": "uint256",
                    "name": "_mintAmount",
                    "type": "uint256"
                }
            ],
            "name": "mintPublicSale",
            "outputs": [],
            "stateMutability": "payable",
            "type": "function"
        },
        {
            "inputs": [
                {
                    "internalType": "uint256",
                    "name": "_mintAmount",
                    "type": "uint256"
                },
                {
                    "internalType": "bytes32[]",
                    "name": "proof",
                    "type": "bytes32[]"
                }
            ],
            "name": "mintWL",
            "outputs": [],
            "stateMutability": "payable",
            "type": "function"
        },
        {
            "inputs": [],
            "name": "name",
            "outputs": [
                {
                    "internalType": "string",
                    "name": "",
                    "type": "string"
                }
            ],
            "stateMutability": "view",
            "type": "function"
        },
        {
            "inputs": [],
            "name": "nftPerAddressLimit",
            "outputs": [
                {
                    "internalType": "uint256",
                    "name": "",
                    "type": "uint256"
                }
            ],
            "stateMutability": "view",
            "type": "function"
        },
        {
            "inputs": [],
            "name": "nftPerAddressLimitPreSale",
            "outputs": [
                {
                    "internalType": "uint256",
                    "name": "",
                    "type": "uint256"
                }
            ],
            "stateMutability": "view",
            "type": "function"
        },
        {
            "inputs": [],
            "name": "owner",
            "outputs": [
                {
                    "internalType": "address",
                    "name": "",
                    "type": "address"
                }
            ],
            "stateMutability": "view",
            "type": "function"
        },
        {
            "inputs": [
                {
                    "internalType": "uint256",
                    "name": "tokenId",
                    "type": "uint256"
                }
            ],
            "name": "ownerOf",
            "outputs": [
                {
                    "internalType": "address",
                    "name": "",
                    "type": "address"
                }
            ],
            "stateMutability": "view",
            "type": "function"
        },
        {
            "inputs": [],
            "name": "paused",
            "outputs": [
                {
                    "internalType": "bool",
                    "name": "",
                    "type": "bool"
                }
            ],
            "stateMutability": "view",
            "type": "function"
        },
        {
            "inputs": [],
            "name": "presale",
            "outputs": [
                {
                    "internalType": "bool",
                    "name": "",
                    "type": "bool"
                }
            ],
            "stateMutability": "view",
            "type": "function"
        },
        {
            "inputs": [],
            "name": "renounceOwnership",
            "outputs": [],
            "stateMutability": "nonpayable",
            "type": "function"
        },
        {
            "inputs": [],
            "name": "revealed",
            "outputs": [
                {
                    "internalType": "bool",
                    "name": "",
                    "type": "bool"
                }
            ],
            "stateMutability": "view",
            "type": "function"
        },
        {
            "inputs": [
                {
                    "internalType": "address",
                    "name": "from",
                    "type": "address"
                },
                {
                    "internalType": "address",
                    "name": "to",
                    "type": "address"
                },
                {
                    "internalType": "uint256",
                    "name": "tokenId",
                    "type": "uint256"
                }
            ],
            "name": "safeTransferFrom",
            "outputs": [],
            "stateMutability": "nonpayable",
            "type": "function"
        },
        {
            "inputs": [
                {
                    "internalType": "address",
                    "name": "from",
                    "type": "address"
                },
                {
                    "internalType": "address",
                    "name": "to",
                    "type": "address"
                },
                {
                    "internalType": "uint256",
                    "name": "tokenId",
                    "type": "uint256"
                },
                {
                    "internalType": "bytes",
                    "name": "_data",
                    "type": "bytes"
                }
            ],
            "name": "safeTransferFrom",
            "outputs": [],
            "stateMutability": "nonpayable",
            "type": "function"
        },
        {
            "inputs": [
                {
                    "internalType": "address",
                    "name": "operator",
                    "type": "address"
                },
                {
                    "internalType": "bool",
                    "name": "approved",
                    "type": "bool"
                }
            ],
            "name": "setApprovalForAll",
            "outputs": [],
            "stateMutability": "nonpayable",
            "type": "function"
        },
        {
            "inputs": [
                {
                    "internalType": "uint256",
                    "name": "_cost",
                    "type": "uint256"
                }
            ],
            "name": "setCostOG",
            "outputs": [],
            "stateMutability": "nonpayable",
            "type": "function"
        },
        {
            "inputs": [
                {
                    "internalType": "uint256",
                    "name": "_cost",
                    "type": "uint256"
                }
            ],
            "name": "setCostPublic",
            "outputs": [],
            "stateMutability": "nonpayable",
            "type": "function"
        },
        {
            "inputs": [
                {
                    "internalType": "uint256",
                    "name": "_cost",
                    "type": "uint256"
                }
            ],
            "name": "setCostWL",
            "outputs": [],
            "stateMutability": "nonpayable",
            "type": "function"
        },
        {
            "inputs": [
                {
                    "internalType": "string",
                    "name": "_hiddenMetadataUri",
                    "type": "string"
                }
            ],
            "name": "setHiddenMetadataUri",
            "outputs": [],
            "stateMutability": "nonpayable",
            "type": "function"
        },
        {
            "inputs": [
                {
                    "internalType": "uint256",
                    "name": "_maxMintAmountPerTx",
                    "type": "uint256"
                }
            ],
            "name": "setMaxMintAmountPerTx",
            "outputs": [],
            "stateMutability": "nonpayable",
            "type": "function"
        },
        {
            "inputs": [
                {
                    "internalType": "bool",
                    "name": "_state",
                    "type": "bool"
                }
            ],
            "name": "setPaused",
            "outputs": [],
            "stateMutability": "nonpayable",
            "type": "function"
        },
        {
            "inputs": [
                {
                    "internalType": "bool",
                    "name": "_state",
                    "type": "bool"
                }
            ],
            "name": "setPresale",
            "outputs": [],
            "stateMutability": "nonpayable",
            "type": "function"
        },
        {
            "inputs": [
                {
                    "internalType": "bool",
                    "name": "_state",
                    "type": "bool"
                }
            ],
            "name": "setRevealed",
            "outputs": [],
            "stateMutability": "nonpayable",
            "type": "function"
        },
        {
            "inputs": [
                {
                    "internalType": "bytes32",
                    "name": "_root",
                    "type": "bytes32"
                }
            ],
            "name": "setRootOg",
            "outputs": [],
            "stateMutability": "nonpayable",
            "type": "function"
        },
        {
            "inputs": [
                {
                    "internalType": "bytes32",
                    "name": "_root",
                    "type": "bytes32"
                }
            ],
            "name": "setRootWl",
            "outputs": [],
            "stateMutability": "nonpayable",
            "type": "function"
        },
        {
            "inputs": [
                {
                    "internalType": "string",
                    "name": "_uriPrefix",
                    "type": "string"
                }
            ],
            "name": "setUriPrefix",
            "outputs": [],
            "stateMutability": "nonpayable",
            "type": "function"
        },
        {
            "inputs": [
                {
                    "internalType": "string",
                    "name": "_uriSuffix",
                    "type": "string"
                }
            ],
            "name": "setUriSuffix",
            "outputs": [],
            "stateMutability": "nonpayable",
            "type": "function"
        },
        {
            "inputs": [
                {
                    "internalType": "bytes4",
                    "name": "interfaceId",
                    "type": "bytes4"
                }
            ],
            "name": "supportsInterface",
            "outputs": [
                {
                    "internalType": "bool",
                    "name": "",
                    "type": "bool"
                }
            ],
            "stateMutability": "view",
            "type": "function"
        },
        {
            "inputs": [],
            "name": "symbol",
            "outputs": [
                {
                    "internalType": "string",
                    "name": "",
                    "type": "string"
                }
            ],
            "stateMutability": "view",
            "type": "function"
        },
        {
            "inputs": [
                {
                    "internalType": "uint256",
                    "name": "_tokenId",
                    "type": "uint256"
                }
            ],
            "name": "tokenURI",
            "outputs": [
                {
                    "internalType": "string",
                    "name": "",
                    "type": "string"
                }
            ],
            "stateMutability": "view",
            "type": "function"
        },
        {
            "inputs": [],
            "name": "totalSupply",
            "outputs": [
                {
                    "internalType": "uint256",
                    "name": "",
                    "type": "uint256"
                }
            ],
            "stateMutability": "view",
            "type": "function"
        },
        {
            "inputs": [
                {
                    "internalType": "address",
                    "name": "from",
                    "type": "address"
                },
                {
                    "internalType": "address",
                    "name": "to",
                    "type": "address"
                },
                {
                    "internalType": "uint256",
                    "name": "tokenId",
                    "type": "uint256"
                }
            ],
            "name": "transferFrom",
            "outputs": [],
            "stateMutability": "nonpayable",
            "type": "function"
        },
        {
            "inputs": [
                {
                    "internalType": "address",
                    "name": "newOwner",
                    "type": "address"
                }
            ],
            "name": "transferOwnership",
            "outputs": [],
            "stateMutability": "nonpayable",
            "type": "function"
        },
        {
            "inputs": [],
            "name": "uriPrefix",
            "outputs": [
                {
                    "internalType": "string",
                    "name": "",
                    "type": "string"
                }
            ],
            "stateMutability": "view",
            "type": "function"
        },
        {
            "inputs": [],
            "name": "uriSuffix",
            "outputs": [
                {
                    "internalType": "string",
                    "name": "",
                    "type": "string"
                }
            ],
            "stateMutability": "view",
            "type": "function"
        },
        {
            "inputs": [],
            "name": "withdraw",
            "outputs": [],
            "stateMutability": "nonpayable",
            "type": "function"
        }
    ]
}